:020000041000EA
:1000000000B5324B212058609868022188439860DF
:10001000D860186158612E4B002199600221596106
:100020000121F02299502B49196001219960352056
:1000300000F044F80222904214D00621196600F024
:1000400034F8196E01211966002018661A6600F04E
:100050002CF8196E196E196E052000F02FF8012189
:100060000842F9D1002199601B49196000215960AB
:100070001A491B48016001219960EB211966A021F2
:10008000196600F012F800219960164914480160C1
:100090000121996001BC002800D000471248134993
:1000A000086003C880F30888084703B5996A0420EC
:1000B0000142FBD001200142F8D103BD02B5186610
:1000C0001866FFF7F2FF186E186E02BD00000240BE
:1000D000000000180000070000035F00212200005C
:1000E000F4000018222000A00001001008ED00E03C
:1000F00000000000000000000000000074B24E7A12
:1001000000200420F7010010C3010010C5010010F9
:10011000C1010010C1010010C1010010C101001097
:10012000C1010010C1010010C1010010C701001081
:10013000C1010010C1010010C9010010CB01001065
:10014000CD010010CD010010CD010010CD01001037
:10015000CD010010CD010010CD010010CD01001027
:10016000CD010010CD010010CD010010CD01001017
:10017000CD010010CD010010CD010010CD01001007
:10018000CD010010CD010010CD010010CD010010F7
:10019000CD010010CD010010CD010010CD010010E7
:1001A000CD010010CD010010CD010010CD010010D7
:1001B000CD010010CD010010CD010010CD010010C7
:1001C00000BE00BE00BE00BE00BE00BEEFF3058054
:1001D000103800BEF2EB887174540210945402106F
:1001E0003802001090A31AE71E481F49086006C88D
:1001F00081F3088810471D480068002801D019487D
:10020000F3E70DA40ECC002902D000F012F8F9E7B4
:100210001749184A002000E001C19142FCD116495B
:100220008847164988471649884700BEFDE701C937
:1002300001C29A42FBD3704794540210C0000020C0
:10024000008B0020D4DE02100000042000000420F7
:10025000D4DE021000100420001004200000000072
:10026000704700000000000008ED00E0000000D032
:10027000008B0020F8E100201D5800105D130010D5
:10028000DD570010F8B5C04606480749091A8B101B
:10029000C90FC91810B5491003D0044B002B00D06A
:1002A000984710BD008B0020008B0020000000004C
:1002B000054B10B5002B03D00449054800E000BFF2
:1002C000FFF7E2FF10BDC04600000000A0A0002024
:1002D00068FA0110030020293DD08E225200825876
:1002E000002A38D08069814237D0012A33D0586B38
:1002F000814239D0022A2ED0186D814236D0032A8D
:1003000029D0D86E814233D0042A24D088201858AE
:1003100081422FD0052A1ED0A420185881422BD00C
:10032000062A18D0C0201858814227D0072A12D098
:10033000DC201858814223D0082A0CD0F820185805
:1003400081421FD0092A06D08A2252009A580020E2
:100350008A4219D070470020FCE70022D000801AA2
:10036000800004301818F5E70122F7E70222F5E7CC
:100370000322F3E70422F1E70522EFE70622EDE787
:100380000722EBE70822E9E70922E7E77047C046C2
:10039000B822520082580300002A45D09020400025
:1003A0001858814242D0012A3ED09220400018586D
:1003B000814240D0022A37D0942040001858814210
:1003C0003BD0032A30D0962040001858814236D0C6
:1003D000042A29D0982040001858814231D0052A9B
:1003E00022D09A204000185881422CD0062A1BD0D7
:1003F0009C2040001858814227D0072A14D09E2004
:1004000040001858814222D0082A0DD0A020400078
:10041000185881421DD0092A06D0A22252009A58AB
:1004200000208A4217D070470020FCE70022523299
:100430009200D058F7E70122F9E70222F7E70322FA
:10044000F5E70422F3E70522F1E70622EFE70722AA
:10045000EDE70822EBE70922E9E7C04610B50248BC
:1004600008F0D4FE10BDC046249000208E235B000F
:1004700070B5C55804000E00002D61D08369202B93
:1004800060D0012D5CD0636B202B62D0022D57D041
:10049000236D202B65D0032D52D0E36E202B27D067
:1004A000042D4DD08823E358202B2ED0052D47D086
:1004B000A423E358202B31D0062D41D0C023E3588C
:1004C000202B34D0072D3BD0DC23E358202B51D0F8
:1004D000082D35D0F823E358202B54D0092D2FD0E8
:1004E0008A235B00E3580025202B55D0280070BDDF
:1004F0003100206F1EF030FE0028D1D10323DD0033
:10050000ED1AAD0004356519F0E76C333100E058A1
:100510001EF022FE0028C9D10423F0E78833310001
:10052000E0581EF019FE0028C6D10523E7E7A433E2
:100530003100E0581EF010FE0028C3D10623DEE78C
:100540000025D3E7C0691EF007FE002899D10023DB
:10055000D5E73100A06B1EF0FFFD002896D10123E6
:10056000CDE73100606D1EF0F7FD002800D092E766
:100570000223C4E7C0333100E0581EF0EDFD00282F
:10058000A6D10723BBE7DC333100E0581EF0E4FDC1
:100590000028A3D10823B2E7F833E05831001EF059
:1005A000DBFD09230028A1D1A9E7C046F8B5002545
:1005B000F0223C211E4805F0E3FB1E4C002005F014
:1005C000C5FA831C11D02B000135E054F02D10D05A
:1005D000002005F0BBFA831CF5D1033001F01EFEAC
:1005E000002005F0B3FA831CEDD1012001F016FEC6
:1005F000E4E73C23104E1148336005F0C1FB33683B
:10060000002B10D000250E4F01CC03F0CDFA0200D4
:100610000B00380005F0B4FB33680135052B00D919
:100620000523AB42F0D80A2005F0DCFA0120F8BD22
:1006300068FA0110D0A00020489C002094FA011014
:10064000A8FA0110F0B5D6464F4646460500C0B59B
:100650008CB009F07BFB114805F00EFB2B68002BDA
:1006600001D100F030FC1A680D4F9B181A683B60EE
:100670009A1A1188042917D8A9680A4C200005F095
:100680007FFB2000A96809F0EBFA05F047FA0CB0EF
:10069000E0BCBA46B146A846F0BDC046B0FA01106B
:1006A00098A000203CFC01109288002AE4D09B58BE
:1006B000032BE1D10321C64805F062FB05F02EFAB9
:1006C00005AB180098460CF031FF8E23C14C5B003F
:1006D000E358002B01D100F02AFEA269092A01D1BA
:1006E00000F0F5FB012B01D100F041FC626B092AFF
:1006F00000D1ECE3022B01D100F039FC226D092A74
:1007000000D1E4E3032B01D100F031FCE26E092AB1
:1007100000D1DCE3042B01D100F029FC8822A2588F
:10072000092A00D1D3E3052B01D100F020FCA4223B
:10073000A258092A00D1CAE3062B01D100F017FC08
:10074000C022A258092A00D1C1E3072B01D100F031
:100750000EFCDC22A258092A00D1B8E3082B01D1F3
:1007600000F005FCF822A258092A00D1AFE3092BBA
:1007700001D100F0FCFB8A235B00E358092B00D178
:10078000A5E30921944809F06BFA0A21934809F07E
:1007900067FA40460BF0ECFC8E235B00E358002B1D
:1007A00001D100F0B8FDA269032A00D1D7E3012BE3
:1007B00001D100F052FC626B032A00D1CFE3022B7F
:1007C00001D100F04AFC226D032A00D1C7E3032BBC
:1007D00001D100F042FCE26E032A00D1BFE3042BFA
:1007E00001D100F03AFC8822A258032A00D1B6E3D6
:1007F000052B01D100F031FCA422A258032A00D11C
:10080000ADE3062B01D100F028FCC022A258032A38
:1008100000D1A4E3072B01D100F01FFCDC22A25879
:10082000032A00D19BE3082B01D100F016FCF8222B
:10083000A258032A00D192E3092B01D100F00DFC4C
:100840008A235B00E358032B00D188E3032162482D
:1008500009F006FA0A21614809F002FA40460EF052
:1008600079FC8E235B00E358002B01D100F056FD8C
:10087000A269112A00D16AE3012B00D1C6E3626BA1
:10088000112A00D163E3022B00D1BFE3226D112AAC
:1008900000D15CE3032B00D1B8E3E26E112A00D152
:1008A00055E3042B00D1B1E38822A258112A00D1CC
:1008B0004DE3052B00D1A9E3A422A258112A00D1AF
:1008C00045E3062B00D1A1E3C022A258112A00D192
:1008D0003DE3072B00D199E3DC22A258112A00D175
:1008E00035E3082B00D191E3F822A258112A00D158
:1008F0002DE3092B00D189E38A235B00E358112BF8
:1009000000D124E31121344809F0AAF90A2133481F
:1009100009F0A6F940460CF0C9FF8E235B00E358AE
:10092000002B01D100F0F1FCA2690E2A00D106E3F0
:10093000012B00D1B9E3626B0E2A00D1FFE2022B3A
:1009400000D1B2E3226D0E2A00D1F8E2032B00D1D0
:10095000ABE3E26E0E2A00D1F1E2042B00D1A4E356
:100960008822A2580E2A00D1E9E2052B00D19CE38F
:10097000A422A2580E2A00D1E1E2062B00D194E372
:10098000C022A2580E2A00D1D9E2072B00D18CE355
:10099000DC22A2580E2A00D1D1E2082B00D184E338
:1009A000F822A2580E2A00D1C9E2092B00D17CE31B
:1009B0008A235B00E3580E2B00D1C0E20E210648CB
:1009C00009F04EF90A21054809F04AF908E0C04645
:1009D000D8FA0110908E002000FB011034FB0110AA
:1009E00040460FF08FFA8E235B00E358002B01D1B5
:1009F00000F088FCA269162A00D198E2012B00D1F0
:100A00007AE3626B162A00D191E2022B00D173E3E4
:100A1000226D162A00D18AE2032B00D16CE3E26E2C
:100A2000162A00D183E2042B00D165E38822A25864
:100A3000162A00D17BE2052B00D15DE3A422A25847
:100A4000162A00D173E2062B00D155E3C022A2582A
:100A5000162A00D16BE2072B00D14DE3DC22A2580D
:100A6000162A00D163E2082B00D145E3F822A258F0
:100A7000162A00D15BE2092B00D13DE38A235B00FB
:100A8000E358162B00D152E21621BA4809F0E8F8D3
:100A90000A21B94809F0E4F840460FF031FC8E23F2
:100AA0005B00E358002B01D100F03BFCA2692D2A2A
:100AB00000D134E2012B00D1DEE3626B2D2A00D19C
:100AC0002DE2022B00D1D7E3226D2D2A00D126E2A0
:100AD000032B00D1D0E3E26E2D2A00D11FE2042BBC
:100AE00000D1C9E38822A2582D2A00D117E2052B94
:100AF00000D1C1E3A422A2582D2A00D10FE2062B77
:100B000000D1B9E3C022A2582D2A00D107E2072B59
:100B100000D1B1E3DC22A2582D2A00D1FFE1082B3D
:100B200000D1A9E3F822A2582D2A00D1F7E1092B20
:100B300000D1A1E38A235B00E3582D2B00D1EEE125
:100B40002D218C4809F08CF80A218B4809F088F88F
:100B500040460DF077FF8E235B00E358002B00D159
:100B6000E2E3A269532A00D1D1E1012B00D15CE379
:100B7000626B532A00D1CAE1022B00D155E3226DEA
:100B8000532A00D1C3E1032B00D14EE3E26E532A76
:100B900000D1BCE1042B00D147E38822A258532A9C
:100BA00000D1B4E1052B00D13FE3A422A258532A7F
:100BB00000D1ACE1062B00D137E3C022A258532A62
:100BC00000D1A4E1072B00D12FE3DC22A258532A45
:100BD00000D19CE1082B00D127E3F822A258532A28
:100BE00000D194E1092B00D11FE38A235B00E35875
:100BF000532B00D18BE153215E4809F031F80A21D3
:100C00005D4809F02DF840460FF068FB8E235B002D
:100C1000E358002B00D172E3A2694D2A00D16EE1A6
:100C2000012B00D18FE2626B4D2A00D167E1022BCC
:100C300000D188E2226D4D2A00D160E1032B00D162
:100C400081E2E26E4D2A00D159E1042B00D17AE213
:100C50008822A2584D2A00D151E1052B00D172E221
:100C6000A422A2584D2A00D149E1062B00D16AE204
:100C7000C022A2584D2A00D141E1072B00D162E2E7
:100C8000DC22A2584D2A00D139E1082B00D15AE2CA
:100C9000F822A2584D2A00D131E1092B00D152E2AD
:100CA0008A235B00E3584D2B00D128E14D213148C8
:100CB00008F0D6FF0A21304808F0D2FF40460EF077
:100CC00001FD8E235B00E358002B00D114E3A269E1
:100CD000722A00D10BE1012B00D17FE2626B722AF4
:100CE00000D104E1022B00D178E2226D722A00D1FA
:100CF000FDE0032B00D171E2E26E722A00D1F6E032
:100D0000042B00D16AE28822A258722A00D1EEE0B8
:100D1000052B00D162E2A422A258722A00D1E6E09B
:100D2000062B00D15AE2C022A258722A00D1DEE07E
:100D3000072B00D152E2DC22A258722A00D1D6E061
:100D4000082B00D14AE2F822A258722A00D1CEE044
:100D5000092B00D142E28A235B00E358722B00D1B9
:100D6000C5E07221034808F07BFF0A21024808F021
:100D700077FF03E000FB011034FB011040460BF04D
:100D80000FFE8E235B00E358002B00D1C0E2A26966
:100D9000062A00D1A3E0012B00D110E1626B062AE4
:100DA00000D19CE0022B00D109E1226D062A00D17E
:100DB00095E0032B00D102E1E26E062A00D18EE01D
:100DC000042B00D1FBE08822A258062A00D186E03D
:100DD000052B00D1F3E0A422A258062A00D17EE020
:100DE000062B00D1EBE0C022A258062A77D0072BB1
:100DF00000D1E4E0DC22A258062A70D0082B00D1F2
:100E0000DDE0F822A258062A69D0092B00D1D6E0ED
:100E10008A235B00E358062B61D00621DD4808F0E9
:100E20001FFF0A21DC4808F01BFFDC4E300013F0E6
:100E3000D3FC002800D04AE2D94FDA4CDA482760C8
:100E400004F01AFF04F06AFE206808F00FFB002887
:100E500000D038E22368D86E07F0CAFCD34B0100FB
:100E6000180004F08DFF23681B681A689A1A11880D
:100E7000082900D85EE21289002A00D15AE29B18A4
:100E80001A689B185A6804329B181A689A1A1488B0
:100E9000062C00D851E2D0881918002800D14CE265
:100EA00008680958082C00D847E212899B18002AC4
:100EB00000D142E21A68BE489A5804F061FF04F07B
:100EC0002DFEFFF7E4FBBB4A1360FFF7D5FBBA48E2
:100ED00008F0C6FE0921B94808F0C2FE59E4B64838
:100EE00008F0BEFE0621B54808F0BAFE9DE7B248FC
:100EF00008F0B6FE7221B14808F0B2FE3EE7AE48F7
:100F000008F0AEFE4D21AD4808F0AAFED6E6AA488C
:100F100008F0A6FE5321A94808F0A2FE73E6A648F1
:100F200008F09EFE2D21A54808F09AFE10E6A24882
:100F300008F096FE1621A14808F092FEACE59E4806
:100F400008F08EFE0E219D4808F08AFE48E59A487A
:100F500008F086FE1121994808F082FEDAE49648EE
:100F600008F07EFE0321954808F07AFE76E45A1CCC
:100F70009446DA00D31A9B009946A1444B46181DAB
:100F80000200414649C949C249C949C209204B46E4
:100F9000096811609861B8218E2362465B004900A0
:100FA000E25063581A0048329200A0501A00844858
:100FB000523292000133A0506350FFF7EAFB5A1CF3
:100FC0009146DA00D31A9B009C46A4446346191D3F
:100FD0000A0046460BCE0BC20BCE0BC263463168ED
:100FE00006261160B8219E618E234A465B004900A7
:100FF000E250635873481A0048329200A6501A0013
:10100000523292000133A05063500EE75A1C9446AE
:10101000DA00D31A9B009946A1444B46181D0200E2
:10102000414649C949C249C949C211204B460968CC
:1010300011609861B8218E2362465B004900E2503E
:1010400063581A0048329200A0501A005E4852328B
:1010500092000133A05063505CE45A1C9446DA00BD
:10106000D31A9B009946A1444B46181D02004146E5
:1010700049C949C249C949C203204B4609681160A0
:101080009861B8218E2362465B004900E2506358A4
:101090001A0048329200A0501A004C485232920076
:1010A0000133A0506350FFF7D9FB5A1C9446DA0075
:1010B000D31A9B009946A1444B46181D0200414695
:1010C00049C949C249C949C20E204B460968116045
:1010D0009861B8218E2362465B004900E250635854
:1010E0001A0048329200A0501A0039485232920039
:1010F0000133A050635073E45A1C9446DA00D31AAB
:101100009B009946A1444B46181D0200414649C91F
:1011100049C249C949C216204B4609681160986105
:10112000B8218E2362465B004900E25063581A00E2
:1011300048329200A0501A002648523292000133E1
:10114000A0506350A8E45A1C9446DA00D31A9B00BE
:101150009946A1444B46181D0200414649C949C25F
:1011600049C949C24D204B46096811609861B821B0
:101170008E2362465B004900E25063581A004832F1
:101180009200A0501A001448523292000133A0502D
:10119000635093E500FB011034FB0110888E0020A2
:1011A000249000208CA000209CFB0110E0FB01108B
:1011B00014FC011098A0002048FB011078FB0110DE
:1011C000E9A8001005A70010A1A9001031A800107F
:1011D00009A7001089AA001031AA00105A1C9446D1
:1011E000DA00D31A9B009946A1444B46181D020011
:1011F000414649C949C249C949C272204B4609689A
:1012000011609861B8218E2362465B004900E2506C
:1012100063581A0048329200A0501A0048485232CF
:1012200092000133A0506350A8E55A1C9446DA009E
:10123000D31A9B009946A1444B46181D0200414613
:1012400049C949C249C949C253204B46096811607E
:101250009861B8218E2362465B004900E2506358D2
:101260001A0048329200A0501A00364852329200BA
:101270000133A0506350C6E45A1C9446DA00D31AD6
:101280009B009946A1444B46181D0200414649C99E
:1012900049C249C949C22D204B460968116098616D
:1012A000B8218E2362465B004900E25063581A0061
:1012B00048329200A0501A00234852329200013363
:1012C000A050635044E4A968204CFFF7D7F90022EE
:1012D000396803920292019280221D4FD2011D4B68
:1012E00000923800220007F0F5FE1B481CF07AF946
:1012F000300013F08DFAA0E50122944670E7012238
:10130000944622E701229446F8E601229446CEE66E
:101310000122914655E601229446A0E60122944618
:1013200076E601229446A9E7012294467FE701224E
:1013300094461EE600235B68FFDE00231B68FFDE89
:101340000DA7001045A7001097A70010B4FB0110CF
:1013500024900020D8A100205D040010F0B5DE46E6
:1013600057464E464546D024E0B580258FB024062A
:10137000AD04192000F046F9656204F0E3FB8348F0
:1013800004F07AFC824800F049FF8248656104F06D
:1013900073FC7F4800F042FF7F4B18000193FFF77A
:1013A00051F9FA20A561400000F038FFFA2065618C
:1013B000400000F033FFFA20A561400000F02EFF4E
:1013C000FA206561400000F029FF744804F054FCE5
:1013D000734B9A46734B0593734B0393734B06936E
:1013E000734B9946734B0C93734B0D93734B07934D
:1013F000734B0893734B0993734B9B46734B0A9340
:10140000734B0B93FFF7D2F8D02380221B06920474
:101410009A6153460021186807F0C0FE5346002128
:101420000490186807F0DCFE019B06009968059897
:1014300004F0A6FC00F0F8FF002900D194E0FA22A5
:101440000023920001F078FB0290F022039D944665
:101450002B0063442F0098465E49286802F0E5FAA5
:101460005C4902F0E8FA0021041C02F027FB002886
:101470006FD1FE21201C890502F036FB002801D027
:10148000FE24A40510C54545E6D1069804F078FC75
:101490004B461B68002B14D000244D46B0460C9ED2
:1014A00001CF02F081FB02000B00300004F068FC69
:1014B0002B680134052B00D905239C42F0D3464606
:1014C000A946019B1B7B002B58D05346186808F097
:1014D000B9F800284ED1B269317F079804F050FC6A
:1014E00000F0A2FF00293AD0FA220023920001F076
:1014F00023FB029BC11A089804F042FC099804F0EF
:101500003FFCB3699B0811D000245D463369A200FB
:10151000D05802F049FB02000B00280004F030FC18
:10152000B36901349B08A342F0D8AB460A2004F00B
:1015300059FB0A9B1B6898681CF0ECFE04F0EEFA5D
:101540000B9804F099FBD02380221B0692045A6169
:1015500058E7002308C5A84500D07DE795E7FA21A4
:10156000890001F0ABFAC4E7FA21890001F0A6FA7C
:1015700002906AE70D9804F07FFBACE7049B0399A7
:1015800018699A6902F006FC9FE7C046E4FC011066
:101590008813000004FD01106420002020FD0110CC
:1015A0008CA0002078FC0110D0A0002094FA01103B
:1015B000489C0020A8FA011094FC0110A8FC01101E
:1015C000C4FC0110D4FC0110E0FC0110AC89002027
:1015D00040FD011000004842064A074B12688E2168
:1015E0005A60064B064A49001A6000225A5054318C
:1015F0005A5070477420002064200020908E0020F4
:101600006C1402100123D02283401206936293616E
:10161000094A83009A1811684022514080320A40DA
:101620000649C0008C4663441A60054B9C4605235E
:10163000604443607047C04604C0014004D001408C
:10164000004001408023DB051868000F7047C0464A
:101650000FB400B5084883B004F00EFB049B002BC8
:1016600007D005A91800019104F048F8034804F0D8
:1016700003FB012004F05AF858FD0110440B02103E
:1016800070B5EFF3108C72B60D4D2B68002BFCD0AB
:10169000BFF35F8F0724CB08C618C05C01230C4042
:1016A000A3401C000440034207D118433070BFF32D
:1016B0005F8F2C608CF3108870BD1000FFF7C8FF9F
:1016C0002C0100D0F8B54746CE46884680B5EFF3EA
:1016D000108C72B61C4D2C68002CFCD0BFF35F8FB1
:1016E0009A4222D807210126894602E0013293421C
:1016F00018D34D4637001540AF40D4080119045D9A
:101700002742F3D110003C430C70BFF35F8F0022DF
:101710000D4B1A608CF3108800280EDBC0BCB94654
:10172000B046F8BD01204042EFE7BFF35F8F0023D2
:101730002B608CF31088012040424346002BEDD0F3
:101740000898FFF785FFC0462C0100D0044A1078A6
:10175000431CDBB2172B00D9102313707047C0460F
:10176000C884002010B5064B064C82B001000093DF
:1017700018221F232000FFF7A5FF02B010BDC046AE
:1017800068FD0110189C00200021044B044ABFF39F
:101790005F8F02C39342FAD17047C046000100D068
:1017A000800100D0054B064A1360064A136053605F
:1017B0009360D36013615361936170478080808030
:1017C00000E400E004E400E01F2318401E3B8340D7
:1017D000002905D0C021044A4900535013607047C6
:1017E000802201498B50FAE700E100E001228240AB
:1017F000034B1B6813405A1E9341D8B27047C04632
:1018000000E100E001238340014A13607047C046B5
:1018100000E200E0084B10309B688000C358002BAA
:1018200007D0064A00209B1A2F229A424041C0B29C
:1018300070470020FCE7C04600ED00E0CC840020AB
:1018400070B50D00EFF3108672B60F4A1368002BC7
:10185000FCD0BFF35F8F0D4B10309B6884001B5989
:101860000B4A934203D09D4201D001F021F8074B6F
:101870009B681D51BFF35F8FBFF35F8F0022024B48
:101880001A6086F3108870BD240100D000ED00E0DE
:10189000CD010010F0B557464E46DE464546E0B550
:1018A00085B0060000911700EFF3108B72B66A4AFC
:1018B0001368002BFCD0BFF35F8F0025674B5D578B
:1018C0009A46002D00DAA9E06B00654C01935B1984
:1018D0009B009846A146C1444B4652469B79103620
:1018E0001370604BB6009B6899590B1B2F2B33D993
:1018F0005D4B994200D0ACE0019B42469C465B4B5D
:101900006544AD0063535A4B0232A218043B9B1A44
:101910001B05584A5B0D651913436B80564B01211B
:10192000AB80FF23AB71009BEF71AB604B460B4369
:1019300019004C4B9B689951BFF35F8FBFF35F8FCA
:101940000022454B1A608BF3108805B0F0BCBB46F3
:10195000B246A946A046F0BD01200A008243D379D1
:101960008C46BB4231D84546130044491B1B5B41A2
:101970005943090D3D4B63533D4B02356519043BFB
:101980005B1B1B053B4D5B0D2B43AA464D466B80F5
:101990000425AC465546E044131F44441B1B1B055D
:1019A0005B0D1D434B46997100999D809960494696
:1019B000DF71334B01431360BBE75800C018800050
:1019C0002018C179B9422FD902000623D356002B23
:1019D000F3DA02932B4B61460393131D9A460423BB
:1019E0005B429C46E14450464B461B1A1B055B0D6F
:1019F0009C46204B9571984663464046034393802E
:101A0000019B5A199200039BA418A380029B1C4AB5
:101A1000A371009B2260E771A3608AE700F048FF92
:101A2000002553465D574FE7908802934005131DEC
:101A30009A46031561469C464046D44463460430AA
:101A40002018181AE0230005400D1B0218430390CC
:101A5000C5E700F02DFF4FE7240100D0F2E10020A0
:101A6000CC84002000ED00E0CD01001000A1FFFFBC
:101A7000FC84002000E0FFFF01BDFFFFAAAA0000D8
:101A80000148804701BD000070B501240443EFF315
:101A90000581EFF3108C72B6214A1368002BFCD03D
:101AA000BFF35F8F1F4B05001F4AED1A6D416A435C
:101AB000120D1E4D8900AE6852B27658A6421CD057
:101AC0000621595691421CD012215956914222D0DA
:101AD0001E215956914220D02A2159560324914261
:101AE00010D0134B19781A708171BFF35F8F0022E9
:101AF0000B4B1A608CF3108870BDAB680D4C5C50BA
:101B0000EFE700246100091989005B18FF21997132
:101B100009499980E5E70124F4E70224F2E7C04689
:101B2000240100D0CC840020AAAA000000ED00E02F
:101B3000F2E10020CD01001001BDFFFF10B5084B00
:101B4000084C82B001000093002205232000FFF71B
:101B5000B9FD002801DB1F23181A02B010BDC046D2
:101B600084FD0110F6E10020024B9C46614489008F
:101B7000016070474000003470B5114C114DAC420B
:101B80000FD2FF262368002B0CD0FFF7DFFD0100EA
:101B90002000FFF7E9FFA680BFF35F8F0834AC4257
:101BA000F0D370BDFFF7D2FD01002000FFF7DCFF8E
:101BB0002671BFF35F8F0834AC42E3D3F1E7C04630
:101BC000F88A0020008B002010B50400FFF7BEFD4E
:101BD00001002000FFF7C8FFFF232371BFF35F8FD1
:101BE00010BDC04610B504000120FFF7BBFD034B3C
:101BF000C3189B002360BFF35F8F10BD400000340B
:101C0000034B9C46614489000160BFF35F8F7047BE
:101C1000400000340A4B1968EFF3108072B60A686E
:101C2000002AFCD0BFF35F8F1B68BFF35F8F0022D9
:101C30001A6080F3108840BF002000217047C04622
:101C4000CCA10020F0B5DE4657464E464546E0B5ED
:101C500087B0EFF305820323012513409D409900CF
:101C6000B34AB44B54581D60B34B8846A9460493FD
:101C700029E0A3881BB2002B00DBA5E0A379002B91
:101C800000D0E6E00823E05E002800DA0FE1430020
:101C900062691B18DB00D3189E68DD68731C00D1D5
:101CA00011E1A64B190041449A6A0B69B01A9B1ABC
:101CB000984200D20E61A14800F0AEFB8D4200DDDB
:101CC000F5E000D12BE14B469C4843630823E55ED9
:101CD000002DCEDB62696B0092465B19DB009A44F3
:101CE00053469E68DF6800F097FB8F42C1DC00D14D
:101CF0000BE1002F00DAF0E05246534652691B69AF
:101D00009346049A934200D1E1E052460821605E76
:101D10005288000459461043984702900391029953
:101D2000039A0B001000134300D1D6E013000A0001
:101D3000B61A9F41002806DB804800F06DFB029E2A
:101D4000039F36184F4153469E60DF6000229A5E23
:101D5000002A8EDB530099186069C900411801936D
:101D60008B68C9689B46B94200DD82E702D1B34265
:101D700000D97EE708239C46A44405956546228148
:101D8000A446019B2C0006E053009918C900411895
:101D90008D68C968AB469B18DB00C318B94206DCE6
:101DA00000D1C0E01C000023E25E002AECDA230030
:101DB00064469C4653461A806346059D1D80A38851
:101DC0001BB2002B00DA59E72269EFF3108172B6DB
:101DD0001368002BFCD0BFF35F8F0123A7885B4201
:101DE000A3803FB22369BFF35F8F00221A6081F3A3
:101DF0001088002F00DA41E72300083322009A46BA
:101E000066697B00DB19DB00F318996850468C4645
:101E10000824115FDD68002910DB019306E0AB4266
:101E20004DD00023E15E2000002906DB4C00641841
:101E3000E4003419E368AB42F1DD019B0780002028
:101E40001F5E1980002FDCDA1400A379002B00D16B
:101E500018E70023A37126000823E15E08364B1C17
:101E600025D00800A246656902E03E004B1C1AD04E
:101E70004B005B18DB00EF180A008C46E95E7B889C
:101E80001BB2002BF1DA01235B42DC17BB60FC6064
:101E9000824205D0534631801B893B8053461A81CC
:101EA00060464B1CE4D15446002800DBEFE640BFFF
:101EB00007B0F0BCBB46B246A946A046F0BDA36839
:101EC0006345AED9B9E76B1C00D0EAE6F3E65B46A2
:101ED00058461B69984700281BD153461B88226926
:101EE0002381EFF3108372B611680029FCD0BFF391
:101EF0005F8F514662880A8022696580BFF35F8FD9
:101F00000021116083F31088B3E6864200D8F0E622
:101F1000AFE65B461A685B6802920393FFE686426F
:101F200000D8D0E6C3E7B34500D83BE73FE7C0465B
:101F3000C0A000203C700540451C0010004005403A
:101F400070B52E4C2569002D04D00A212C48FFF7CE
:101F50000BFE70BD2B4E0321300000F053FAE660FB
:101F6000FFF7F4FB284B03229C46D02322701B066C
:101F70001B6801216370254B6044A3600F23800020
:101F800020610220638063694942A1801980023187
:101F9000198647311D83585218315A5275325C39AF
:101FA000995218320131995218320131995218322E
:101FB00001319952083518329D5202311832995226
:101FC00018320131995218320131995218320131C7
:101FD00099521832013199521832013199520C4BF1
:101FE0000C49DC6001303562FFF72AFC0121032037
:101FF000FFF7EAFB084B1D60A7E7C04614850020E9
:10200000CCA100200040054040000034FFFF10003C
:10201000C0A00020451C00103860054000487047F3
:1020200014850020F8B51F0008AB1B7804001600CB
:10203000002B08D100F0F8F932003B00121A8B4156
:10204000002B00DA52E02269EFF3108072B61368B9
:10205000002BFCD0BFF35F8F0223E15E63694A006F
:102060005218D2009B182269002936DB1D88658032
:10207000BFF35F8F0025156080F31088069A9E607D
:10208000DF601A61079A5A615A8801325204520C71
:10209000101C002A1FD082B2588008041043266901
:1020A000EFF3108772B63268002AFCD0BFF35F8F5F
:1020B000A2881A80A1802369BFF35F8F00221A6073
:1020C00087F310880A4923788C4601329A40E368E6
:1020D00063441A60F8BD0120DDE7BFF35F8F002382
:1020E000136080F3108801204042F3E70020F1E7FD
:1020F0003C20000070B501000469EFF3108C72B64B
:1021000020680028FCD0BFF35F8F02200D5E4C6971
:1021100068004019C00024180869002D36DB2688A5
:102120004E80BFF35F8F002606608CF31088E3605B
:1021300063880498013320615B0405985B0CA260FE
:1021400060611A1C002B1FD093B2280462801843D0
:102150000A69EFF3108C72B61368002BFCD0BFF342
:102160005F8F8B8823808D800B69BFF35F8F002288
:102170001A608CF310880B7801329A40CB680849BA
:102180008C4663441A6070BD0122DDE7BFF35F8FA8
:10219000002303608CF3108801204042F3E7C0461F
:1021A0003C20000010B543890A1493421ADD530005
:1021B0009B184269DB00D3180469EFF3108C72B6E8
:1021C0002268002AFCD0BFF35F8F5A88090494B2BA
:1021D000090C8A4208D00369BFF35F8F00221A609E
:1021E0008CF31088002010BD8022120214435C8002
:1021F000012302698371BFF35F8F002111608CF3AB
:102200001088044902788C469340C26801206244D9
:102210001360E8E73C20000040787047F0B5C64600
:1022200000B582B0040000F0FFF8FA2206000F00AB
:10223000200000230021920001F0DAFB801979418F
:1022400004000D1E02DA01242E4D64420626764259
:10225000F71736196F41AF4214D811D000F0E4F8E7
:1022600032003B00121A8B41002B15DC002B46D0AC
:102270002000290000F016F902B080BCB846F0BD7D
:10228000A642EBD90026002700F0CEF832003B0032
:10229000121A8B41002BE9DD00F0C6F832003B003A
:1022A000121A8B41002B0ADB00230193164B3200DC
:1022B000009316483B00FFF71DFF0130D8D00023E4
:1022C0003900B0469C46124A1248536A994204D8D3
:1022D000966A4645CCD29942CAD10668EFF3108778
:1022E00072B63368002BFCD0BFF35F8F0368BFF377
:1022F0005F8F66461E6087F3108820BFE5E7002ADF
:10230000B6D0C9E7FFFFFF7F151C00101485002021
:1023100000400540CCA10020F0B5CE46474680B530
:1023200004000D0083B0EFF3058399460F00002BE6
:1023300042D1314EA0463378F06804339B00816A65
:102340001B58601A5B1A984212D320BF2B490020F9
:102350004B6AAB4207D38A6A5B1B591E8B414146CD
:102360008A424041184303B0C0BCB946B046F0BDF4
:1023700000F05AF822002B00121A8B41002B28DBA8
:102380004B4601931E4B2200009330002B00FFF7B9
:10239000B1FE011E1DDD194B5A6AAA422AD39B6A5F
:1023A0009C4225D83000FFF7FDFE144A0020536AF6
:1023B000BB42D8D3926ACFE7104900204B6AAB42A8
:1023C000D1D38A6A5B1B591E8B41A24240411843FC
:1023D000C9E70A4A0020536ABB42C4D300204146E1
:1023E000926A5B1B8A4240415A1E93411843BAE7E6
:1023F000AA42D7D120BFD5E7148500200040054070
:10240000151C001010B5024A0248FFF739F910BD3B
:10241000A0FD01101C9C00200300416A0A00986A7C
:10242000596A8A42FAD17047034B596A0A00986A7E
:10243000596A9142FAD170470040054070B50400D6
:102440000D00174A536A1900966A536A8B42FAD1F3
:102450003000190024184D41AB4216D813D0104B50
:102460002A005B6A9D4203D90D494B6A9342FCD313
:10247000934207D10A4A02E0516A994202D1916A15
:10248000A142F9D370BDA642E9D9054B5B6A1C0095
:102490005A1CEFD0012201246442E5175242E3E7BF
:1024A00000400540064A536A9942FCD807D1044BC4
:1024B00002E05A6A914202D19A6A9042F9D8704772
:1024C00000400540F8B5DE464E4657464546E0B565
:1024D0008B4605000A991800160000F0EFFA0A9BD7
:1024E0006C001F02324B64199C46A400644463686C
:1024F00081469F4200D967602B1FDBB29846012BB3
:1025000030D9C02380229B01E31812011A60294BA5
:10251000AD0059599A4600291BD17301E026226863
:1025200053401E40802342465B01E3181E60012A8F
:1025300030D9802380229B01E31812011A60534690
:102540004A4667605A51F0BCBB46B246A946A0460F
:10255000F8BD586900F0B2FA013043001B18033B84
:10256000FDD2DAE75B46012BCBD1C02303229B01CE
:10257000E3181A60023AA3681A42FCD07301E026FD
:102580002268AD0053401E4080230A4A5B019246F8
:10259000E3181E605A462168514003220A401A601F
:1025A00001225B469A40A3681A42FCD0C1E7C046AC
:1025B00000800040209C0020F0B546464F46D6469D
:1025C000C0B51F00344B44009C462418A40064444A
:1025D000636888461600FF2B02D880235B00636087
:1025E000031FDBB29A46012B30D9C02380229B0106
:1025F000E31812011A60294B8500595999460029A0
:102600001BD17301E026226853401E4080235246AE
:102610005B01E3181E60012A30D9802380229B01D0
:10262000E31812011A6080235B0063604B465F5120
:10263000E0BCBA46B146A846F0BD586900F03EFA83
:10264000013043001B18033BFDD2DAE74346012B60
:10265000CBD1C02303229B01E3181A60023AA3687E
:102660001A42FCD07301E0262268850053401E40C8
:1026700080230A4A5B019146E3181E6042462168A6
:10268000514003220A401A60012342469340A26847
:102690001342FCD0C1E7C04600800040209C0020CF
:1026A000014B8000C0587047209C0020F8B5040002
:1026B00021481E0017000D0000F000FA010038004C
:1026C00000F0FCF9069B36041B031E432368002B15
:1026D00020DB1A4B1A49E3185A1E934180229201BB
:1026E00094465B421B0B174A1B0363441360164A54
:1026F00013601F000A689743FBD1144B2560E21852
:102700002123A06013602368002BFCDA0823E66015
:102710001360F8BD3F2322681340AB42D9D1A368B0
:102720001B051B0D8342D4D1EE22E368D202134075
:10273000B342CED1EDE7C046001BB7000040FDBF5D
:1027400008C0004000E0004000F0004004300000FD
:1027500010B580241C4BE4051C6000281AD001230E
:102760001A4C18431A4BDC611A4C44401C625962E3
:1027700098628021144BC9051960174817490860F1
:10278000E021C9041960002A07D18022144B1206E7
:102790001A6010BD0E4BD861EBE753019B1A9B00EA
:1027A0009A18802312015B049A4209D213000D4942
:1027B0000B60074B5A608022094BD2051A60E8E78C
:1027C000094B1A00F3E7C04600B00540D3C007B07C
:1027D000008005402D3FF84FFCFF0100082001401C
:1027E00000A0054094A00020FFFFFF008023024AC4
:1027F0009B000B43D362704700800540002310B557
:102800000100988A1B8B984710BDC046162310B54F
:102810000100188802331B88984710BDF8B5474659
:10282000CE4680B50F1E18D01423994604330400F9
:102830000025012698464B461888434621681B8888
:10284000984701C4431E984101350640AF42F2D17A
:102850003000C0BCB946B046F8BD0126F8E7C04616
:10286000002370B504000D00988A05491B8B98471A
:1028700003000020002C01DB0130A0402900984714
:1028800055420000AA23064A1B0113602F23054965
:10289000D360054B19605368002BFCDA7047C046C3
:1028A0000040024000B0FA00006002407047C0469D
:1028B00010B50148FEF7CCFEC4FD011070B5074D00
:1028C000074EB54209D20024013E761BB60808CD5A
:1028D000984723000134B342F9D170BD18FA0110B2
:1028E00054FA0110054B064A06491A60064A074B7E
:1028F0001A6010000B689843FBD1704700E000405D
:10290000BFCDFBFE08C00040FE7F3C0000F0004051
:10291000044BDB6C002B03D18022034BD2021A60E4
:102920007047C046000011504C201150044A054B1E
:102930001A60054A1368DB018033FBD17047C0463B
:10294000FFFFFF0100F0004008C000404022034BA1
:102950009A675A671A67DA667047C04600F0014006
:1029600010B5FEF711FF10BD70B5044D044CA968F9
:10297000C022200001F00EFAAC6070BD00ED00E056
:1029800000000020002310B5294C82B0A367FFF798
:1029900079FF0122274B1A60636C012BFCD10322C3
:1029A000254B1A60224A936B012BFCD10133009313
:1029B0000121224A22480433FFF778FE0523012132
:1029C0000093204A2048FFF771FE002202210420D4
:1029D0001E4BFFF7F1FD0022012105201C4BFFF7E4
:1029E000EBFD0022002107201A4BFFF7E5FD002236
:1029F00000210820174BFFF7DFFD8023DB00009349
:102A0000002200210920134BFFF75CFD0022104B30
:102A100000210620FFF7D0FD0420FFF741FE0E49FC
:102A200000F04CF801000020FFF7E0FE02B010BDFE
:102A3000008000403CB0004030B00040002F68599A
:102A400000800240008C864700C00240001BB70097
:102A500040597307006CDC0240420F00014804211A
:102A6000014B1847308500201D280010124A936F33
:102A70009B0815D29066D166002905D0FFE7FFE7D5
:102A8000FFE7516F106F704704B580210906C21728
:102A90005140002800D0C8431CF02EFF002104BD87
:102AA000F0B5146E556E576F166FFFF7E3FF14669F
:102AB000556657671667F0BD000000D0114A936F46
:102AC0009B0813D210665166002905D0FFE7FFE787
:102AD000FFE7516F106F704704B5002801D0002048
:102AE000C0431CF009FF002104BDC046F0B5146EC0
:102AF000556E576F166FFFF7E5FF146655665767FB
:102B00001667F0BD000000D094464A4A926F9208C2
:102B1000624601D228E0C046F0B5464E346E756E6E
:102B2000776F366F00F020F89446424A1466556677
:102B3000576716676246F0BD94463E4A926F920808
:102B4000624601D254E0C046F0B53A4E346E756E1E
:102B5000776F366F00F04CF89446364A1466556627
:102B6000576716676246F0BD002B24DB11D00029A1
:102B70003EDA00B5C943404200D1013100F038F8D7
:102B8000C943404200D10131DB43524200D10133FD
:102B900000BD002AEBD1002801D1002905D000207A
:102BA000C90FC90701D1C043410800B51CF06CFE34
:102BB0000022002300BD00B500290ADBDB4352429E
:102BC00000D1013300F014F8C943404200D1013173
:102BD00000BDC943404200D10131DB43524200D124
:102BE000013300F005F8DB43524200D1013300BD50
:102BF000002923D1002B18D1002A0CD0BC460D4F40
:102C000038667A6600210023FFE7FFE7FFE77A6F67
:102C1000386F67467047002801D00748010000B5AB
:102C20001CF032FE0022002300BD02000B00002039
:102C300000217047000000D0FFFFFFFF002B00D0F5
:102C4000BFE0130C28D1002AE7D080B4114F3966B9
:102C50007A66FFE7FFE730B4040C7B6F396F1B0423
:102C600023433B667A66FFE7FFE7FFE7C04684B28F
:102C70007B6F3D6F1B0423433B667A66FFE7FFE7EC
:102C8000C04600232C042D0C7A6F386F001969415F
:102C9000B0BC7047000000D0F0B594460025140E7B
:102CA00001D112020835140F01D112010435940F1D
:102CB00001D192000235D40F01D152000135D40B5D
:102CC0000134254F7C66254C3C660E0C93B2FFE721
:102CD000FFE7FFE73C6F6643360C7703BE4673435E
:102CE000DF0B5B04C01AB941130C7343DB18C91A1C
:102CF000CE086643360CB64493B273431F0F1B01D4
:102D0000C01AB941130C73431F0B1B05C01AB941FC
:102D1000860D8F023E436643360C092D24DB520A92
:102D20007243801A7703460A6643360C16235B1BF0
:102D3000DE40DF40BF1964466643821B704604359F
:102D400006330100D940A840C01900D30131A24286
:102D500006D20023F0BD0000000000D0FFFFFFFFFF
:102D6000121B0130F3D3F1E709277F1BFE406446B5
:102D7000A2B27243801A00D20139220C7243130CA2
:102D80001204821A99410B00704604351337010072
:102D9000F940A840801900D30131002B02D1A24292
:102DA0000AD2F0BD013000D30131121BFAD2013B2F
:102DB000F8D1A24200D2F0BD013000D30131121B84
:102DC000F7E7F0B51C0C00D080E00CB400251C0A1D
:102DD00004D11B02160E3343120208351C0B04D11A
:102DE0001B01160F3343120104359C0B04D19B00C9
:102DF000960F334392000235DC0B02D192185B41EF
:102E000001351C00971864410134464F7C66464CDE
:102E10003C660E0CFFE7FFE7FFE7C0463C6F6643EA
:102E2000360C7703BE4697B27743C01B00D20139F8
:102E3000C01B00D201399FB27743C91BC91B170CB5
:102E400077437E04FF0B801BB941CE086643360CE6
:102E50000C2D33DBB644120B1F053A431B0B97B204
:102E60007743C01B00D201399FB27743C91B170CAF
:102E700077433E043F0C801BB941860D8F023E43D1
:102E8000664329277F1BFE400C3D7746AF40BF19A4
:102E900030BCA2B2ABB272437343801A9941220C88
:102EA0007243130C1204801A994102000B0001377F
:102EB000001BA941F9D2781E0021F0BD0C277F1B11
:102EC000FE4077467F0BAF40FF19E0E700245D1C12
:102ED00007D0144F7D663966FFE7FFE7FFE7FFE79E
:102EE0003C6F95B29EB265436643401BB141150CE1
:102EF0001E0C6543664336042F0C3E432D04401BD5
:102F0000B141994204D202000B0020000021F0BD23
:102F100001D19042F7D3801A994101349942F2D3FA
:102F2000F6E70000000000D0FFFFFFFF48404140EF
:102F3000484018B41B4B5B68FC46019308BD04DF96
:102F4000BF33001018B4174B1B68FC46019308BD33
:102F500000DFC93300109446134A926F920809D2D9
:102F6000624618B40F4BDB68FC46019308BD0CDFCA
:102F7000813600100C4AF0B5146E556E576F166FFF
:102F80006246FFF7EEFF084A1466556657671667F4
:102F9000F0BD18B4034B9B68FC46019308BD08DFE5
:102FA00025350010888C0020000000D0FFB550406F
:102FB0004240504059404B40594000E0FFB5154F4A
:102FC0004C00640D03D0BC4204D10C0314D8002083
:102FD000090D09055C00640D03D0BC4204D11C033B
:102FE0000AD800221B0D1B0501264B4009D44B407B
:102FF00003D58B4200D18242FFBD9942FCD1904261
:10300000FFBD0B43DB1803431343F5D0C9434918F5
:10301000FFBD0000FF07000000B5FFF7CFFF01D0A4
:10302000002000BD012000BD00B5FFF7C7FF8041B3
:1030300000BDC04600B5FFF7C1FF01D9002000BDAB
:10304000012000BD00B5FFF7B1FF01D9002000BD90
:10305000012000BD00B5FFF7A9FF804100BD0120A0
:1030600040054A00121804D85A00121801D800204E
:1030700070470120704700000021002805D17047EB
:10308000C1174840401AFAD0C90713B5064B1B6850
:1030900098470CBC441CA2401005120B0349091BA5
:1030A00009051943114310BDC8A100201F040000E9
:1030B00010B54C00620D8023D218DB00D21A5B05DC
:1030C0007E2A10DD9E3A13DACC170903490819430A
:1030D0005242D140640001341532202A05DAD04032
:1030E0000843604310BD002010BD0846604310BD7A
:1030F000C80FC018013810BD18B4044B5B6AFC46F9
:10310000019308BD24DF313800100000888C0020B6
:1031100018B4044BDB6DFC46019308BD5CDF3D3900
:1031200000100000888C0020C94211D300B549006E
:103130004908002200F018F8002904D40022404277
:103140008A41114600BD80210906002000BD000013
:1031500018B4044BDB6EFC46019308BD6CDF3F38AE
:1031600000100000888C002018B4044B9B6FFC46B4
:10317000019308BD78DF5B3800100000888C0020C8
:1031800018B4044BDB6FFC46019308BD7CDFC938E3
:1031900000100000888C0020132370B51D78012DCD
:1031A00019D014DD1F48FFF731FB06001E48FFF75A
:1031B0002DFB1E4C80223100200000F0EBFD022D83
:1031C0002DD01B48FFF71AFB1A4B186070BD1A4B25
:1031D000164CA364F5E7184B144C23606360A3609E
:1031E000E36023616361A361E36123626362A362BD
:1031F000E36223636363A363E36323646364A3649D
:10320000E36423656365A365E36523666366A3667C
:10321000E36623676367A367E367A364D1E7064BAD
:10322000A364CEE75344000053460000888C00207E
:103230004C330000C8A100208D330010244A4B00FD
:1032400094465B0D6344F0B504000D005A1C21DB6D
:103250005A1C35D0342B1CDA3326F61A3700203F9F
:103260001CD40121B9400B000121B1400A00121900
:103270006B41002F1EDB0224BC4021000224B4401D
:1032800020001600002544428D4126402B4030008E
:103290001900F0BDCB0F0020D907FAE7202101204B
:1032A000891BC8400121B14003000A0012196B417B
:1032B000002FE0DA20240225A41BE5402900DDE7E9
:1032C000CB0F044ADB071A4300201100E1E7C04698
:1032D00001FCFFFF0000F03FF0B50B0049000200C9
:1032E00085B0490D40D02748091837D4342610003E
:1032F000761A1900002E2FDD3100203938D4012034
:103300000024002588400094019501900121B140DE
:10331000009101204042C117009C019D00196941A4
:103320000D0000210400D80F002746428F4102946F
:103330000395029C34402000039C3C40210012185D
:103340004B4100980199002746428F4134001440B8
:1033500020003C001C40210005B0F0BD00200021F1
:10336000002BF9DA0849F7E7DB0F0020D907F3E76C
:1033700020210120891B00240025C84000940195CC
:103380000190C3E701FCFFFF0000F0BF07B56046F6
:1033900001880A0A0230DF2AFAD1C9B2820804D3AE
:1033A000028840880004104300E00068014A505041
:1033B000039007BD888C00200FB403BC0CBCF0B593
:1033C0000124E407634000E0F0B50C0DCF0F661E4A
:1033D0003605891B640503D3C943404200D301313C
:1033E000640D03D0661CF60A07D0E41B00207F00A2
:1033F000791C89078912803C24031D0DDF0F6E1E86
:1034000036059B1B6D0503D3DB43524200D30133CA
:103410006D0D03D06E1CF60A07D0ED1B00227F0055
:103420007B1C9B079B12803D2D032F1B661B58D4D2
:10343000A446202E46DA20371400BC401D00BD40B3
:10344000F24033412A4380185941CB0F05D0C9437C
:10345000C043002264425041514162464D0D28D183
:103460000D0D07D100281FD0241940414941013AD0
:103470000D0DF9D0640006D3013000D30131002CCA
:1034800001D140084000013A0BD4941CE40A04D155
:1034900012051144DB071944F0BDD907204B19432D
:1034A00000E0D9070020F0BD0029DDD1002CDBD1E0
:1034B000F0BD0132C6074008CD0728434908002E59
:1034C000E1D0D9E73C2E29DA203E40371400BC4039
:1034D00000D00124F24014431A00BB401C43D31710
:1034E000ACE7AC46202F08DA20360400B4400D00CB
:1034F000B540F84039412843A5E73C2F0CDA203F7E
:1035000040360400B44000D00124F84004430800D1
:10351000B1400C43C117EAE710001900002494E7FA
:103520000000F07FF0B50C0D661E3605891BE60A1B
:103530006405640D02D0651CED0A04D00020012151
:103540000905803C2403A4461C0D671E3F05DB1BB8
:10355000E70A6405640D02D0651CED0A04D0002260
:1035600001231B05803C24037740644497B484B254
:1035700096B27443070C7E43150C6F4380B26843C8
:10358000361802D3012000043F183004350C00190E
:103590007D41844688B29AB250430C0C62431F0CA2
:1035A0007C438EB27E43921902D301263604A419BD
:1035B0001604170C3618674101BC81B29AB2514308
:1035C000040C62431B0C5C4380B25843121802D3B4
:1035D0000120000424181004130C401863412D1816
:1035E0005E410020474106BC88B293B258430C0CA0
:1035F0006343120C544389B251435B1802D3012137
:103600000904641819041A0C091862416D1856410E
:103610000020474118BCF902720D1143F0026A0DF7
:103620001043ED020A0D03D16D1940414941013BA0
:10363000124E9B1B7600B3420ED26D0007D30130B1
:10364000002671416646354301D1400840001B0504
:10365000C918E4072144F0BD0BDA013306D101306B
:1036600004D101314F0D01D04908F2E7E1070020F4
:10367000F0BD013631050020EBE70000FF0300003C
:10368000F0B51C0D671E3F05DB1BE70A6405640DE2
:1036900002D0661CF60A04D0002201231B05803CE0
:1036A0002403D0252D060026F6432E661E096E66DD
:1036B000CE0FF619B44649004F0D02D07E1CF60A13
:1036C00003D000200021403F3F033E1BB600B4441E
:1036D000013F7F05C91B49082E6F013676089C0201
:1036E000950D25437543ED137543AD1301356D10ED
:1036F000F603761B0CB4CC02450D2C43A2B2B3B238
:103700005A43270C7B43350C6F43A4B26C431B19FF
:1037100002D3012424043F191C041D0CA4187D416C
:1037200024196D41009A91B2ACB26143170C7C43ED
:103730002B0C5F4392B25A43A41802D30122120405
:10374000BF182204230C52187B41019C6C431B19A7
:10375000520ED9010A434401A01A81B2B2B25143B8
:1037600003145A43360C734387B27743D617D219E2
:1037700000277E4136049B191704160C7F185E4102
:103780007316ED18F301002680337541A90F06D199
:103790006400690AE8055B0A184309D22FE0042295
:1037A000944480337541A90AA8059B0A184326D37F
:1037B000404149412404009A019B0D005543641B7C
:1037C0004343E41A95B286B27543170C7E43030C4B
:1037D0005F4392B25A43B61802D301221204BF18B3
:1037E0003204330C52197B4152429C41002C02D4CA
:1037F0000022013051414008CA071043490802B075
:103800006246D7079210084BD218084B9A4203D24F
:1038100012058918C919F0BD0020002A01DC390001
:10382000F0BD01331905F5E7FD030000FE070000B8
:10383000002200B5203200F010F8080000BD002280
:1038400000B500F00CF8CA179A4200D100BDD84369
:103850000121C907414000BD00220B150AD410B553
:10386000944600F0A7F81414013400DA0021CB17B5
:10387000144C20470020002170476244343A0CD495
:103880000C2A07DA04009140904052422032D44082
:10389000214310BDD843D94310BD203207D40C4674
:1038A0009440524220321141D040204310BD0800C4
:1038B000C917203203D452422032104110BD1800E3
:1038C000190010BD7B3800104A00520D144BD21A5B
:1038D00013DDFF2A1EDAD205CB0FDB071A43C30024
:1038E000400F0903490A084310435B0001D301D08C
:1038F000013070474308FBD2704702D0C80FC007A1
:1039000070470A0312130132F8D1420F072AF5D18A
:10391000012200E0FF22C80F00028018C005704796
:103920008003000000210A00002104E000210A00B9
:10393000C11704E00022002306E0C0460022CB1796
:1039400058405940C01A994130B5184CA21A002964
:1039500003D1010010D00020203A4C1512D104D21E
:10396000013A001849414C0DFAD3114CA24204D23D
:1039700012058918DB07C91830BDD243520D00204B
:103980000021F5E703D4013A00184941FBD50B3279
:103990004405C00A4D052843C90A640003D0002429
:1039A00060416141E1E7E0D34408F8E732040000F8
:1039B000FE0700000A0DCC0F531E1B05C91A520545
:1039C00003D3C943404200D30131520D03D0531CED
:1039D000DB0A07D0121B00206400611C89078912D2
:1039E000803A1203014BD21A70470000FF03000017
:1039F00051434343C9188C46110C83B24B4310B456
:103A0000040C614392B280B2504362431C041B0C0D
:103A1000001910BC59411304120CC01851416144E3
:103A2000704700004840414048400E4B5B681847D3
:103A30000C4B1B6818470C4A936F9B0802D2094B2A
:103A4000DB681847F0B5146E556E576F166FFFF7A9
:103A5000F6FF054A1466556657671667F0BD014BB9
:103A60009B681847888D0020000000D007B54840AB
:103A70004140484001E0C04607B54200120E03D065
:103A8000FF2A03D1420218D8C00DC0054A00120E09
:103A900003D0FF2A03D14A020FD8C90DC90501225C
:103AA000414005D4414001D5814207BD884207BD50
:103AB0000143491801D0C043001807BD00B5FFF706
:103AC000DBFF804100BDC04600B5FFF7D5FF01D93F
:103AD000002000BD012000BD00B5FFF7C7FF01D9E0
:103AE000002000BD012000BD00B5FFF7BFFF8041F1
:103AF00000BD0000C10FC90700D54042002817D003
:103B0000F44603B40B4B1B68984706BC81409E38B3
:103B10004042803107D20B0607D04900490AC00550
:103B20001043084360470130F8E7490A8902F5E786
:103B300070470000C8A1002041000A0E80231B0628
:103B40007E2A0BDD9E3A0BDAC1174002400818436B
:103B50005242D0404900013148437047002070472D
:103B6000C00FC01801387047C0420DD300B54000E7
:103B70004008002100F012F8002801D4404200BDA6
:103B80008020000600BD0000034BDB69FC4618479F
:103B90001CDFE13C00100000888D0020014B5B6AB7
:103BA00018470000888D0020034BDB6FFC46184748
:103BB0007CDFF93C00100000888D0020014BDB6C9D
:103BC00018470000888D0020014B1B6D184700002E
:103BD000888D0020132310B512481C78FEF716FEBE
:103BE0000100012C0AD003DD80220F4800F0D2F83A
:103BF0000E48FEF703FE0E4B186010BD0A4C54220F
:103C0000200000F0C7F80B4B6365A365E3652366EE
:103C10006366A366E36623676367A367E36723625C
:103C2000E361E5E753460000888D00204C33000037
:103C3000C8A10020B53C001043001B0E7F3B5A1C5E
:103C40000DDB5A1C0ED0172B08DA1622D21A0123CC
:103C500093401818022393405B4218407047C00FEE
:103C6000C007FBE7C00FC307FE2080051843F5E738
:103C7000420010B5031C0400120E11D07F3A0AD482
:103C800017218A1A002A05DD01209040002B0ADA4C
:103C90004042204010BD002808DA80200006F9E7E5
:103CA000C30FD807F6E7441EE418F1E7FE208005AD
:103CB000F0E7C04607B5604601880A0A0230DF2AED
:103CC000FAD1C9B2820804D30288408800041043A4
:103CD00000E00068014A5050039007BD888D002025
:103CE0000021C2158032803201D0024A10470020E4
:103CF00070470000CD2A0000C30FDB0741000A0E09
:103D000007D0FF2A08D00909054A89181943400736
:103D100070471900002070470249C918FAE70000EF
:103D2000000000380000F07F10B5040019F0B4FC6A
:103D3000002804D0034B04199C4200D810BD02484F
:103D4000FDF786FC00000420D0FD011010B50C002A
:103D500019F0ACFF002804D0034B04199C4200D892
:103D600010BD0248FDF774FC00000420D0FD0110D6
:103D700010B519F09BFC10BD01480421014B1847F8
:103D8000408500201D280010014B1B6818470000CB
:103D900040850020014B5B681847000040850020EB
:103DA00010B5FFF7E5FF10BD9A4200D28854704766
:103DB0007047C046F8B55746DE464E464546E0B524
:103DC00099460A9B07009A460D9B884693460B9C92
:103DD0009B073BD10C9B9C423DD21E1B0B941500B4
:103DE0000C005E442A004B46013521002020B847D4
:103DF000B542F7D1A0460B9C002C20D04546361981
:103E00005346321B013C185D29004B46B847002C35
:103E1000F6D12B00350098460D9B9B070FD55B46CE
:103E2000EC1A0C9BA3420AD9464698462A004B46F8
:103E3000310020200134B84701354445F6D328002D
:103E4000F0BCBB46B246A946A046F8BD1600150018
:103E5000002CD3D1E0E716001500002CCED1EEE700
:103E6000F0B54546DE4657464E46E0B585B09C4621
:103E700010AB1B78149F934698460F9C129E139D7F
:103E8000BB074CD4002D42D1B44248D201233B4061
:103E900099460E9B013B9A46302304E0524601347A
:103EA0001355A64201D9202CF8D14B46002B00D146
:103EB00083E00E9B013B99463023A54205D82EE0B6
:103EC0004A4601341355AC4229D0202CF8D1FB06C8
:103ED0000CD57B0554D4A64263D0A54261D0119B7A
:103EE000102B50D0022B57D0202C32D120230193FD
:103EF0000E9B5A460093039763460295FFF75AFFBD
:103F000005B0F0BCBB46B246A946A046F0BD0123B1
:103F10003B40994601233B422AD1B442B9D3FB0628
:103F20001CD57B05DBD4002CD5D1119B102B5BD08D
:103F3000119B022B6BD0302301240E9A1370434641
:103F4000002B10D17B073ED52B260E9A631C1655ED
:103F5000CDE72300013430260E9AD654202CC5D04C
:103F60004346002BEED02D260E9A631C1655BEE755
:103F70004346002B2FD0013DB44200D289E798E799
:103F8000119B102BB2D1BB0637D5202CAED05823B5
:103F90000E9A13550134A7E7202CA7D02300013433
:103FA00007E0631E012CC0D0119A102A31D0022ADA
:103FB000D1D162260E9AD65496E7FB06CED57B0564
:103FC00000D488E78BE723003E0790D520260E9A81
:103FD000013316558BE70C233B405A1E9341ED1AD3
:103FE000B44200D255E764E7BB060ED478230E9A9C
:103FF0000224137030235370A1E7202C00D175E701
:1040000078230E9A135501346EE75823EFE7603397
:10401000EDE70E9AA61E91464E44BA0602D55822E6
:10402000327098E77822327095E7C04610B50028C4
:1040300000D110BD01F0D6FDFBE7C0460B0010B566
:10404000002802D049681B68984710BDF0B5574654
:10405000DE464E464546E0B595B083460F00924693
:1040600098461E9A1F9B10001900209EFEF7F7FF2E
:10407000002800D0EAE11E981F990122C54B524248
:10408000FEF7D2FF002800D014E11E981F990122EC
:10409000C14B5242FEF7DEFF002800D0E9E01E9837
:1040A0001F990022BD4BFEF7D5FF002800D0C8E0C5
:1040B0001E981F990022BA4BFEF7B6FF002800D0C9
:1040C000BFE01E981F9900220023FEF7ADFF0028D5
:1040D00000D0E4E000230B93229B5B0500D406266E
:1040E0000024302307E0172106AA01345218135583
:1040F000013E202C01D0092EF5D81E981F99FEF7FD
:10410000D7FFA84BF2009B181A685B68050008925D
:104110000993FEF7B5FF02000B001E981F99FEF7EA
:1041200008FF089A099BFEF734FF06900791FEF7F7
:10413000E3FF8146FEF7A0FF02000B0006980799F7
:10414000FEF7F7FE0022984B06900791FEF782FFDC
:10415000002800D10DE101239C46E1444846FEF7CA
:104160008BFF02000B0008980999FEF763FF0028F7
:1041700002D0002399460135002E00D1D9E00695E2
:104180004D46B94614E006AA944617230A21634413
:10419000280001341F19FEF791FC303139702800D6
:1041A0000A21013EFEF78AFC092D00D817E105001F
:1041B000202CE8D14F46069D20240CAE06AA1723DA
:1041C0009446634499465B46B34606930FE04B46DC
:1041D00028000A210134E618FEF748FC3031280097
:1041E00031700A21FEF742FC051E00D1E4E0202CCC
:1041F000EDD1069B5E469B460323229A1340012B7A
:1042000018D1219B002B15D00B9B002B00D1FDE07A
:10421000219B013B2193202B0CD93023219A07E0CD
:10422000172006A9013409180B55944200D3CCE09D
:10423000202CF5D1229B01940393219B009602939D
:1042400022E0229B52460493219B39000393584657
:104250001E9B1F9C029600930194434600F04AF96E
:104260000400200015B0F0BCBB46B246A946A046EB
:10427000F0BD229B5B070FD403224C4B2299019285
:1042800003912199009302914346524639005846C2
:10429000FFF790FD0400E4E70422454BEEE71E9A89
:1042A0001F9B00200021FEF744FE01231E901F915A
:1042B0000B9311E7229B54469B0711D1219B042BA2
:1042C0000ED9219B55469C465E46043C64442A0018
:1042D0004346013539002020B047A542F7D1B34607
:1042E000344D26002B1F99465B46A3461C00320026
:1042F000E87843463900013DA04701364D45F6D1E7
:1043000023005C469B46229B04349B07A9D5534659
:10431000219AE31A9A42A4D95E4615002200434628
:1043200039002020B04753460134E31A9D42F5D8A6
:1043300097E72800FEF7A4FE02000B001E981F99C5
:10434000FEF7F7FD0022184B06900791FEF76CFE72
:104350000CAE002800D031E7069807990022124BD6
:10436000FEF778FE002800D028E7012301359D43A1
:1043700024E70022069807990B4BFEF755FE00280C
:1043800000D0F9E64B46002B5CD101239C46E1446A
:10439000F2E6C046FFFFEFFFFFFFEF7F65CDCD41A7
:1043A00065CDCDC1781602100000E03F28FE011057
:1043B00020FE011030FE0110069B5E469B46032343
:1043C000229A1340012B00D181E0202C00D131E74B
:1043D0000B9B002B27D02D23335501342AE74F4662
:1043E000069D202C00D1E7E63022331907E0172084
:1043F00006A9013409180A55202C00D1DCE6A34295
:10440000F5D12E220CAE0134F254D7E60C23229AB9
:10441000134257D0219B013B2193A34200D9FCE6D4
:10442000202C00D106E7229B5B0703D52B233355B5
:104430000134FFE6229B1B0700D4FBE62023335503
:104440000134F7E6DB0700D496E69EE7229B55464B
:104450009B0711D1219B032B0ED9219B54469C46CF
:104460005E46033D65442200434601343900202066
:10447000B047AC42F7D1B346B9465F461C4EEC1C80
:104480002A00B078434649460135B847013EAC4260
:10449000F6D1229BBB464F469B0700D4E1E653462C
:1044A000219AE31A9A4200D8DBE65E461500220004
:1044B000434639002020B04753460134E31AAB424B
:1044C000F5D3CEE6219BA34200D9A6E6B2E6219B16
:1044D000002B00D179E70B9B002B97D0219B013B50
:1044E00021939C4200D298E6202C00D073E7A1E6ED
:1044F0002CFE0110F0B5DE4657464E464546E0B567
:1045000099B081468B4692469846229A239B10008A
:104510001900FEF7A4FD002800D0CAE022982399D4
:104520000122824B5242FEF795FD002800D0C0E0E8
:104530002298239901227E4B5242FEF775FD0028F6
:1045400000D0B6E02298239900220023FEF76CFDEC
:10455000002800D0C9E1229B239C08930994089865
:1045600009998023269ADB001A400D928022269C0E
:104570001201144022000B94269C07000E001C42DE
:1045800000D0ADE00B00034300D0D5E0002A00D0FE
:104590000AE2220006332493022313400C930223E1
:1045A000134200D002E2259B042B00D20FE2043B11
:1045B0000B93002304250A930022229823990023B9
:1045C000FEF732FD002800D003E25A4B269A134032
:1045D00004930B9B0393249B0293089B099C0093D9
:1045E00001945946434652464846FFF72FFD0200C4
:1045F0002020269B1F27034059424B415B42184015
:10460000531C0893594643464530C8470A9AD31766
:10461000D4185C40D30F0A936B1E0B9308AB9C46D7
:104620000025674401E0202D0FD020000A21FEF76D
:1046300045FA01357E193031317020000A21FEF72C
:104640003DFA26000400092EEDD8052306930B9BA6
:1046500059460593002304930A3303930A9B484663
:10466000029310AB0093089A43460195FFF7F8FBBD
:104670000C9B002B2DD05346C41A259BA34228D94E
:104680004D465F4681461E00534639001A192020C8
:1046900043460134A847A642F6D8534648462599D2
:1046A000C21A01320023914200D386E1013018186A
:1046B0000FE0269B0493259B0393249B0293229B4C
:1046C000239C009301944346524659464846FFF7BF
:1046D000BDFC19B0F0BCBB46B246A946A046F0BD31
:1046E00001432BD10B9B2200002B00D154E7002368
:1046F0000A93249B0A9A0024934200DD85E12298C4
:10470000239900220023FEF78FFC002800D035E11A
:10471000269B084A02941A408023DB00134304932B
:10472000259B0393089B099CCBE7C046FFFFEF7FC7
:10473000FFFFEFFFFFF7FFFF06232493B44B70004A
:104740009C46400D6044FEF79BFCB24AB24BFEF71C
:1047500020FCB24AB24BFEF7F5FB3603B14B360BE9
:10476000334304000D00380019000022AE4BFEF761
:10477000E0FBAE4AAE4BFEF70CFC02000B00200043
:104780002900FEF7DFFBFEF793FC0A90FEF778FCAA
:10479000A84AA94B04000D00FEF7FBFB0022A74B23
:1047A000FEF7D0FBFEF784FCA54A0600A54B2000CF
:1047B0002900FEF7EEFB040030000D000C96FEF71A
:1047C0005FFCA14AA14BFEF7E4FB02000B002000B6
:1047D0002900FEF7AEFB02000B0006000F00FEF7FB
:1047E000D8FB320004000D003B0030003900FEF71A
:1047F000A9FB00220E900F91954B20002900FEF797
:10480000AAFB0022934BFEF79DFB02000B00200049
:104810002900FEF7A0FB00228F4BFEF793FB02005E
:104820000B0020002900FEF796FB0D0080210400FC
:1048300032003B000020C905FEF77BFB02000B00A5
:1048400020002900FEF77EFB02000B000E980F9956
:10485000FEF781FB0022734BFEF774FB7F4B0C9C31
:104860009C46644400222305FEF793FB06000F00DC
:1048700002000B0008980999FEF7D6FB00280AD021
:104880000A9B3000013B39000A930022714BFEF76E
:1048900062FB06000F000A9A330063323900C62A11
:1048A00012D802222698042510400B9A0C90002A58
:1048B00025D1259B042B05D9002800D0A1E0259BFC
:1048C000043B0B93042541E00222269810400B9AEA
:1048D0000C90002A12D1259B052B76D9002872D185
:1048E000259B0525053B0B9334E080221206944658
:1048F000229B0893239B6344099330E605250B43D1
:1049000000D1F6E608980999554A564BFEF79AFBEE
:10491000002808D0089809990022534BFEF784FB21
:10492000002800D0E5E6249B002B1CD00D9B002B1B
:1049300019D0249B013B2493259BAB4204D90C9BAB
:10494000002B5AD002230C9300230B930A9B002BBD
:1049500000D131E60898099932003B00FEF7FBFAD6
:104960000890099128E6259BAB42EDD90C9B002BC2
:1049700043D000230B9302330C93E7E78020269B60
:104980003A4A00061A40802384460294089C099DF6
:104990002900DB0013430493259B61442200039309
:1049A0000B00009201938EE60524A8E600230B93EA
:1049B0000A93023304250C93FEE553468C46013BD3
:1049C00063441B1A72E602230C930525C2E70423F5
:1049D000EDE58020089E099F000639008446269A4E
:1049E000224B6144134004930B9B32000393249B9E
:1049F00002930B0000920193F3E5259B5B1B0B9345
:104A0000A4E7022304250C93A0E79C1A013C76E658
:104A100001FCFFFFFB799F501344D33FB3C8608B69
:104A2000288AC63F0000F03F0000F83F61436F63F3
:104A3000A787D23F71A379094F930A400000E03F56
:104A40001655B5BBB16B0240EF39FAFE422EE63F78
:104A500000002C400000244000001840FF0300002C
:104A60002D431CEBE2361A3F80842E41FFF7FFFFF7
:104A7000F0B5DE4657464E464546E0B5A5B01E00A9
:104A80002E9B92460C93CD4ACD4B80468B461A60A6
:104A9000002900D1EAE1002330789946002800D1AE
:104AA000ECE1C84B4C460B93C74B454657460E931B
:104AB0000AE0631C984622003B005946A84744463A
:104AC0003078002800D187E001362528F1D108236D
:104AD0009A46043B9946023B9846013B00229C467D
:104AE0000D943078711C0300203BDBB2102B03D8EF
:104AF0000B9C9B00E3589F460300303B89460D9C6E
:104B0000092B3AD9002398462A2800D1C1E0002376
:104B10009A462E284BD00300683BDBB2122B1ED8DE
:104B20000E999B00CB589F4663460E001A43D8E768
:104B300043460E001A43D4E74B460E001A43D0E713
:104B400010230E001A43CCE753460E001A43C8E761
:104B500080235B001A43FF3B9C467078E1444E463D
:104B600067284FD82428A4D90300253BDBB2422B69
:104B70009FD896499B00CB589F46002394461E0021
:104B800000E00131B3009B195B001E180878303E2D
:104B90000300303B092BF4D90123624689469C4629
:104BA0000023B0469A460E00E1442E28B3D13021AE
:104BB000802049428C46C000024370784B468444B2
:104BC0006146092900D86CE12A2800D17AE1012345
:104BD0009C464E46E1449EE7A146A846BA46CA45D1
:104BE00003D801235B425344994653464A465946EB
:104BF0000020C047200025B0F0BCBB46B246A94605
:104C0000A046F0BD0300693BDBB20D930F2B00D92A
:104C10004FE7012199408C466D49894661464B46D4
:104C200019400F91634649460B4200D028E10D9B85
:104C30000A2B3AD0072B00D03BE70C9B190008C980
:104C40008846002B00D14BE121200243914614A954
:104C50008C461F220F2162448C4651460D950C91C3
:104C6000A24615000F9902E020290CD013006446DB
:104C70001C4020003730092C00D807380131685417
:104C80001A090F2BF0D80C9B54460D9D9A460F9194
:104C900033E10C9B02CB8846002947DB0C930123B0
:104CA0009C4670784E46E14431E70C9B02CB14934E
:104CB0005346002B00D138E19C4608780B000C903D
:104CC0008C44002801D100F098FC89466146944646
:104CD00003E05A780133002A01D08B42F9D14946CA
:104CE00062465B1A0C900F93530500D520E1022316
:104CF000180010400D90134200D1CBE30D930B1B15
:104D0000B1469A465E460C9822003B003100A84707
:104D100053460134185D0028F6D1B3464E460D9B2C
:104D2000002B00D0C7E1149B0C93C9E60C93012320
:104D30009C46283849420243884670784E46E144F2
:104D4000E5E670786C2800D17FE180235B001A4390
:104D5000FF3B9C46E14402E780239B001A4301236A
:104D60009C467078E144FAE67078682800D173E1D7
:104D700080231A437F3B9C46E144F0E6672800D13C
:104D800003E1472800D15AE1452800D15AE10492B5
:104D9000072142460C9B0392073352468B4319006E
:104DA00002920CC92800009201930C9122003B0052
:104DB0005946FFF79FFB040082E6C046714A001087
:104DC00090A00020DC140210201502106C150210B7
:104DD00041900000462800D1DBE0049207214246C2
:104DE0000C9B0392073352468B43190002920CC965
:104DF0002800009201930C9122003B005946FFF7D6
:104E000025F904005CE6631C984622003B005946E5
:104E10002520A847444653E60C9B04330D93631C9E
:104E20009946920700D422E10C9B2200187859463B
:104E30003B00A84743464444012B00D885E2330099
:104E4000B8462E005F4625004C4699462200434650
:104E5000013439002020B047AC42F7D12C00BB46CA
:104E6000350047464E460D9B0C9329E6DB4B3078C8
:104E7000984600239946002800D012E60024AEE6AA
:104E80006F2800D188E000D80BE31023782800D1E8
:104E9000CFE09A430A239C4600230F930A330D93D5
:104EA00080E05646B1008919490001330E18187880
:104EB000303E010030390929F4D9B2461E000133D1
:104EC000994628E60C9B023602CB8A46C9435046D7
:104ED000C917084082460C933078731C99461AE62D
:104EE000102310009843113318438146802013008B
:104EF000C0000340024200D1A9E64B4606930823B6
:104F000005935346049310230393002302930F9BAE
:104F1000220001931CAB009359463B002800FEF78A
:104F20009FFF434604000C93CAE501235B42C3E69E
:104F30000F9B534501D953460F930223180010408D
:104F40000D90134200D1B7E10D93D1460B1B9A4649
:104F50003300A1442E0022004D460C98B9465F460E
:104F60009B4608E04B463900541CB0475346185D39
:104F7000002877D022009542F4D15B46BB464F46CD
:104F8000A94635004C461E00C9E680231B011A4382
:104F9000FDE620231A4320E708239C4600230F93B5
:104FA00008330D9380231100DB0019401A4200D111
:104FB00016E10D239A431000802302009B001A4043
:104FC0001492184200D0C2E1802302005B001A4014
:104FD00091460C9A04320F92184200D0B7E2430671
:104FE00000D59FE1030600D419E30C9B1B880993AD
:104FF000002B00D0FCE110339843002900D1F7E1E9
:105000000023994643460593534604930D9B06900F
:1050100003930023D2E0582808D0622867D10223E6
:105020009C4600230F9302330D93BBE720231A43C2
:10503000103B9C4600230F9310330D93B2E780235F
:105040001B011A4320231A43A1E6C0239B001A43E5
:10505000F31C9946B07882E5C0231A43F31C9946A5
:10506000B0787CE535005E46BB464F4657E6434682
:10507000012B00D863E1631E43449A463300B946CE
:105080002E005F4655469B46A24622004B46013401
:1050900039002020B047AC42F7D135005E46BB4610
:1050A0004F46A14654460C9B4A46187859463B0049
:1050B0004444A847D7E6A1460F9B984500D832E65E
:1050C0004444E41A3300B8462E005F4625004C469F
:1050D000994622004346013439002020B047AC42B3
:1050E000F7D12C00BB46350047464E461BE68023D1
:1050F0001000DB0018401A4200D10FE11121180006
:105100008A430D920D9A802311009B0019408C4612
:105110001A4269D1802311005B00194089460C991D
:1051200004310F911A4200D0CAE113005B0600D58A
:10513000F0E013001B0600D459E20C9B00229B5E9A
:10514000D9175A184A4092B2D90F0C91002B00D1AE
:10515000F9E1100014AA944642461F2314925246C5
:105160006344A84616944D460400B946B2461F0053
:10517000159201E0202D0FD020000A21FDF79EFCA2
:1051800001357E193031317020000A21FDF796FC7F
:1051900026000400092EEDD8149B4F46A94645462B
:1051A0009846159B56469A46169C0D9B0693434679
:1051B0000593534604930A2303930C9B02934B4697
:1051C00001931CAB2200009359463B002800FEF7D8
:1051D00047FE0F9B04000C9372E4C046B13D0010E3
:1051E0000C239A431000E7E607220C9B07339343F6
:1051F000013294469C4462460C920CCBD90F0F911D
:105200001100194300D191E0D91713911291514027
:10521000109113995940119110981199129A139B5A
:10522000801A99411090119114AA00239446424685
:105230009946149252461F336344A846B2461694C8
:105240004E46109C119DB94615921F0001E0202E7C
:1052500010D0200029000A220023FDF76DFC013642
:1052600030322B00BA550D0022000400002BEED185
:10527000092AECD8149B1094119545469846159B25
:105280004F46B14656469A46169C0D9B069343469A
:105290000593534604930A2303930F9B02934B46B3
:1052A00001931CAB2200009359463B002800FEF7F7
:1052B000D7FD0400FFF704FC0F9B984500D8C1E11F
:1052C0008023DB000D9343460F9A1B199B1A9946C6
:1052D00033002E004D46B9465F469B460C91220096
:1052E0004B46013439002020B047AC42F7D1434649
:1052F0000C9901330F930B7835000C935E46BB4637
:105300004F46002B00D10EE50D9B002B00D1F6E49B
:10531000002319E60C9B1B781A0015E710239A430B
:105320000D92EFE60C9B1B78099361E600239946EA
:105330000028AAD1002200231092119374E70C9B3D
:105340002200187859463B00A8474C468BE50C9A3A
:10535000FA3BFF3B07329A430133994691444B464F
:105360000C931368526815921A4306D11032904379
:1053700000220992002900D081E06122810600D537
:105380004122D2B20A9214AA91460A9A00210A3AFC
:10539000149242461792524618925A460991B346C1
:1053A0001F311E000F9B4944BA4619941A950024D8
:1053B000674698468946159D16901B920AE0303242
:1053C000D2B24B4601341A55A8454AD0202C4AD0B7
:1053D00006000D003A00002330002900FDF7ACFB69
:1053E000D2B2092AEBD9149B9C466244D2B2E8E7B8
:1053F0006123820600D54123DBB20A3B0C9343466E
:1054000014A91F228C46159353466244A046B24607
:105410004C461797A9461700099D0D9E14901693A8
:1054200008E03033DBB201343B55B5420ED3202CBB
:105430000CD0050031002800FDF740FBCBB2092954
:10544000EFD90C9A94466344DBB2ECE7159B4D46CA
:10545000A14644469846169B564614989A46179F6E
:10546000D0E5B742B2D9179B57469846189B5E467F
:105470009A461B9B09949B461698199C1A9D434675
:105480000593534604930D9B0690039300230293C8
:10549000099B05E70F9B984500D914E701330F934B
:1054A0002DE41023110099430D91692800D0BAE032
:1054B00080231000DB0018401A4200D122E61DE6CE
:1054C0000C9B1B68DA0F1100002B00D18CE0DA175F
:1054D0009818504014AA914642461F2314925246EF
:1054E0004B44A046A946169704006546B2461F00E5
:1054F0000C91159201E0202D0FD020000A21FDF71C
:10550000DDFA01357E193031317020000A21FDF7B6
:10551000D5FA26000400092EEDD8149B444698467F
:105520000C9BAC461900159B56464D469A46169F55
:105530000D9B0291069343460593534604930A2319
:10554000039363463CE6002800D02EE602E60C9B5F
:105550001B689946002B03D110339843002938D19A
:105560006123820600D54123DBB20A3B0C934346FC
:105570001693534614A91F228C4617932B0062449E
:10558000A0464D46B246189799461700149C0D9EAA
:10559000159008E03033DBB201343B55B5420ED3F1
:1055A000202C0CD0050031002800FDF787FACBB283
:1055B0000929EFD90C9A94466344DBB2ECE7169BB9
:1055C000149444469846179B56464D469A4615985D
:1055D000189F43460593534604930D9B06900393EF
:1055E00000230293149BEBE50028A1D172E70C9BEA
:1055F0001B68D9175A184A40A6E580231000DB0023
:1056000018409C460F901A420FD00220030013400E
:105610000F93104219D00023A1460F934CE50C9B29
:105620001B680993E4E40A0034E4022318001040E4
:105630000D90134200D03EE54346002B00D042E6D9
:10564000FFF771FB01330F937FE463460D93F3E79C
:105650000EB4012230B584B007AC08CC064D010071
:105660000094280052420394FFF702FA04B030BCC1
:1056700008BC03B01847C046A93D001010B5054C42
:1056800082B0009313000A0001002000FFF7F0F938
:1056900002B010BDA93D001010B50C0084B00394F9
:1056A000012402A902900093034813006242FFF70D
:1056B000DFF904B010BDC0463D4000100FB430B556
:1056C0000C4985B008AA08CA0D680392002D0CD0B9
:1056D00000920122084C5242200002A9A847012052
:1056E00005B030BC08BC04B01847180000F0C4FA7C
:1056F0000020F5E790A000202D40001010B5094AC9
:105700000300146884B0002C08D0012200910648E0
:10571000524203A9A047012004B010BD00F0ACFA2A
:105720000020F9E790A000202D40001000BEFDE70A
:10573000094A03001068002805D00849C3188B42A5
:1057400007D81360704706480449C31810608B429D
:10575000F7D901204042F5E7849C00200000042096
:10576000F8E1002000207047012040427047C04609
:10577000030010B508001100002B05D1044B1A6876
:105780005B6800F071F910BD01204042FBE7C046A4
:10579000801402100300013B10B508001400012B17
:1057A00006D801230022210000F0E0F8200010BDFF
:1057B00001204042FBE7C046012040427047C046FE
:1057C000012040427047C046012040427047C04619
:1057D0000300022200209A424041704710B5FFF7B3
:1057E000A5FFC04630B50D0083B01900002A0BD0CC
:1057F000074B084C0192009302002B002000FFF79A
:105800005DFF0120FFF792FF034B1A00F1E7C0464E
:1058100038FE011048FE0110DCFB011070B5FDF7E9
:105820004DF8074D074EB54209D20024013E761BC4
:10583000B60808CD984723000134B342F9D170BDB2
:1058400054FA011068FA0110030010B508001100A5
:105850001B68984710BDC046F0B5C64600B5437DED
:1058600007000C001600002B46D0002A17DD0B782D
:105870000A2B24D000239846012E13D0012529009D
:10588000635C01350A2B26D0B542F8D1464509DCC8
:10589000A419013C23780D3B5A4253413B7580BC0F
:1058A000B846F0BD4346E018A419F11A013C3B6824
:1058B000984723780D3B5A4253413B75EFE7037DF0
:1058C000002BD7D102210F483B689847012EDFD02B
:1058D00001239846D2E7631E5B5C0D2BD4D088452C
:1058E00004DA4346C91AE0183B6898470221054884
:1058F0003B68A8469847C7E703681100200098470F
:10590000CDE7C046C8160210F0B5C6460B680600C3
:105910000C0000B5802B06D05A1C2260E4182671BA
:1059200080BCB846F0BD0F4B1D68002D16D00B1D76
:1059300098460D4F02E02D69002D0FD02B68002BEB
:10594000F9D03B68002B01D0AB42F4D1280041468E
:105950002268FFF781FF2D69002DEFD1012200237E
:10596000DBE7C046749C0020809C0020F0B54546D3
:10597000DE464E465746E0B583B091461C00804651
:105980000D00FCF751FD0023304A12184B41002B4B
:1059900002DA01222E4B52422E4908008A4619F0A3
:1059A000F3FF07006B1C03D1404619F057FC0500BC
:1059B000002C27D0284E294B1C68002C18D04B46B1
:1059C000002B21D1264B994602E02469002C0FD0F0
:1059D0002368002BF9D04B461B68002B01D09C425A
:1059E000F3D120002A004146B0472469002CEFD1B2
:1059F000002F26D1280003B0F0BCBB46B246A94612
:105A0000A046F0BD174ED6E7154B99460A239B4694
:105A100002E02469002CEBD02368002BF9D04B4620
:105A20001B68002B01D0A342F3D12A00414620007D
:105A3000B0476B465A462000DA71D91D0122B047A3
:105A4000E7E7504619F018FFD4E7C04640420F0080
:105A5000FFFFFF7FF88A002059580010749C002037
:105A6000809C002049580010F8B557464E464546E0
:105A7000DE4698461A4BE0B59B461A4B07000E00CF
:105A800091469A46184D5B461C68002C03D115E0E0
:105A90002469002C12D02B68002B01D0A342F7D12F
:105AA000A368002BF4D03100380098470028EFDDC0
:105AB000F0BCBB46B246A946A046F8BD53465B6A59
:105AC000984508D85246926A4A4502D3022040427D
:105AD000EEE79845FAD101200021FCF7AFFCD2E7B0
