:020000041000EA
:10000000002008205D0100101301001015010010F0
:100010001101001011010010110100101101001058
:100020001101001011010010110100101701001042
:100030001101001011010010190100101B01001026
:100040001D0100101D0100101D0100101D010010F8
:100050001D0100101D0100101D0100101D010010E8
:100060001D0100101D0100101D0100101D010010D8
:100070001D0100101D0100101D0100101D010010C8
:100080001D0100101D0100101D0100101D010010B8
:100090001D0100101D0100101D0100101D010010A8
:1000A0001D0100101D0100101D0100101D01001098
:1000B0001D0100101D0100101D0100101D01001088
:1000C0001D0100101D0100101D0100101D01001078
:1000D0001D0100101D0100101D0100101D01001068
:1000E0001D0100101D0100101D0100101D01001058
:1000F0001D0100101D0100101D0100101D01001048
:100100001D0100101D0100101D0100101D01001037
:1001100000BE00BE00BE00BE00BE00BEEFF3058004
:10012000103800BEF2EB8871E0A5021004A60210A0
:10013000A801001090A31AE7D3DEFFFF42012110AF
:10014000FF0100007C350300793512AB4FF0000051
:100150002049086006C881F3088810474FF05040D6
:10016000006810B14FF00000F2E70FA40ECC002998
:1001700002D000F015F8F9E71749184A002000E00E
:1001800001C19142FCD1002080F30A8814498847BC
:10019000144988471449884700BEFDE701C901C2D8
:1001A0009A42FBD3704700BF04A602101001002042
:1001B000C0910020B4360310000008200000082081
:1001C000B4360310001008200010082000000000C2
:1001D0007047000008ED00E0C091002074E30020AB
:1001E000714D001095110010354D0010F8B500BF8D
:1001F000064B0749C91A891048BF0131491003D07D
:10020000044B0BB101481847704700BFC091002054
:10021000C09100200000000008B5054B1BB1054946
:100220000548AFF30080BDE80840FFF7E1BF00BF1D
:1002300000000000FCA20020D451021020293AD076
:10024000D0F81C31BBB38269914236D0012B32D039
:10025000426B914238D0022B2DD0026D914235D0A5
:10026000032B28D0C26E914232D0042B23D0D0F879
:10027000882091422ED0052B1DD0D0F8A420914289
:100280002AD0062B17D0D0F8C020914226D0072BB9
:1002900011D0D0F8DC20914222D0082B0BD0D0F81E
:1002A000F82091421ED0092B05D0D0F814318B4292
:1002B00008BF092302D0002070470023C3EBC3030B
:1002C00000EB8300043070470123F7E70223F5E7D2
:1002D0000323F3E70423F1E70523EFE70623EDE724
:1002E0000723EBE70823E9E7704700BFD0F8703138
:1002F000DBB3D0F82021914239D0012B35D0D0F892
:100300002421914238D0022B2FD0D0F828219142BD
:1003100034D0032B29D0D0F82C21914230D0042B9B
:1003200023D0D0F8302191422CD0052B1DD0D0F80D
:100330003421914228D0062B17D0D0F83821914291
:1003400024D0072B11D0D0F83C21914220D0082B8B
:100350000BD0D0F8402191421CD0092B05D0D0F809
:1003600044318B4208BF092302D00020704700238C
:10037000523350F8230070470123F9E70223F7E7CF
:100380000323F5E70423F3E70523F1E70623EFE76B
:100390000723EDE70823EBE7014808F027BA00BF81
:1003A000E494002070B5D0F81C51BDB383690446B5
:1003B000202B0E465CD0012D30D0636B202B5DD0FE
:1003C000022D2BD0236D202B60D0032D26D0E36E81
:1003D000202B25D0042D21D0D4F88830202B2CD0F0
:1003E000052D1BD0D4F8A430202B2FD0062D15D0EE
:1003F000D4F8C030202B32D0072D0FD0D4F8DC3009
:10040000202B4BD0082D09D0D4F8F830202B4ED01B
:10041000092D03D0D4F81431202B51D0002070BD09
:100420003146206F24F0D6F90028D3D10320C0EB49
:10043000C00004EB8004201D70BD3146D4F88C0050
:1004400024F0C8F90028CBD10420F0E73146D4F8D5
:10045000A80024F0BFF90028C8D10520E7E73146FD
:10046000D4F8C40024F0B6F90028C5D10620DEE790
:10047000C06924F0AFF900289DD1D8E73146A06BC0
:1004800024F0A8F900289BD10120D0E73146606D07
:1004900024F0A0F9002898D10220C8E73146D4F80A
:1004A000E00024F097F90028ACD10720BFE73146DF
:1004B000D4F8FC0024F08EF90028A9D10820B6E772
:1004C0003146D4F8180124F085F90028A6D1092076
:1004D000ADE700BF2DE9F04105468CB008F01BFFE9
:1004E0000E4804F001FE2B68002B00F0F68319681B
:1004F0000B4E5A580B449A1A11883360042913D8AA
:10050000A968084804F070FE0648A96808F08AFE49
:100510000CB0BDE8F04104F091BD00BFD85102100D
:10052000F4A20020645302109288002AE8D099585F
:100530000329E5D1B548B64C04F056FE04F07EFD23
:1005400005A80BF065FCD4F81C31002B00F0E18508
:10055000A269092A00F0C483012B00F01184626BA8
:10056000092A00F0BD83022B00F00A84226D092ABB
:1005700000F0B683032B00F00384E26E092A00F03A
:10058000AF83042B00F0FC83D4F88820092A00F004
:10059000A783052B00F0F483D4F8A420092A00F0E7
:1005A0009F83062B00F0EC83D4F8C020092A00F0CA
:1005B0009783072B00F0E483D4F8DC20092A00F0AD
:1005C0008F83082B00F0DC83D4F8F820092A00F090
:1005D0008783092B00F0D483D4F81431092B00F061
:1005E0007F8309218B4808F01DFE0A218A4808F004
:1005F00019FE05A80AF0BAFBD4F81C31002B00F054
:100600008085A269032A00F0B383012B00F02784C0
:10061000626B032A00F0AC83022B00F02084226D71
:10062000032A00F0A583032B00F01984E26E032A4D
:1006300000F09E83042B00F01284D4F88820032A53
:1006400000F09683052B00F00A84D4F8A420032A36
:1006500000F08E83062B00F00284D4F8C020032A19
:1006600000F08683072B00F0FA83D4F8DC20032AFD
:1006700000F07E83082B00F0F283D4F8F820032AE0
:1006800000F07683092B00F0EA83D4F81431032BB1
:1006900000F06E8303215F4808F0C4FD0A215E4824
:1006A00008F0C0FD05A80CF00FFED4F81C31002B9B
:1006B00000F02985A269112A00F05283012B00F075
:1006C000A983626B112A00F04B83022B00F0A283F6
:1006D000226D112A00F04483032B00F09B83E26E0D
:1006E000112A00F03D83042B00F09483D4F8882075
:1006F000112A00F03583052B00F08C83D4F8A42058
:10070000112A00F02D83062B00F08483D4F8C0203A
:10071000112A00F02583072B00F07C83D4F8DC201D
:10072000112A00F01D83082B00F07483D4F8F82000
:10073000112A00F01583092B00F06C83D4F81431D2
:10074000112B00F00D831121324808F06BFD0A21B6
:10075000314808F067FD05A80BF01AFDD4F81C31EC
:10076000002B00F0CA84A2690E2A00F0F182012B4E
:1007700000F09B83626B0E2A00F0EA82022B00F0ED
:100780009483226D0E2A00F0E382032B00F08D8308
:10079000E26E0E2A00F0DC82042B00F08683D4F88F
:1007A00088200E2A00F0D482052B00F07E83D4F836
:1007B000A4200E2A00F0CC82062B00F07683D4F819
:1007C000C0200E2A00F0C482072B00F06E83D4F8FC
:1007D000DC200E2A00F0BC82082B00F06683D4F8DF
:1007E000F8200E2A00F0B482092B00F05E83D4F8C2
:1007F00014310E2B00F0AC820E21064808F012FDD9
:100800000A21054808F00EFD08E000BF0052021062
:1008100060930020285202105C52021005A80DF0CF
:10082000A1FBD4F81C31002B00F06584A269162AC4
:1008300000F08682012B00F05D83626B162A00F0C7
:100840007F82022B00F05683226D162A00F07882F8
:10085000032B00F04F83E26E162A00F07182042B06
:1008600000F04883D4F88820162A00F06982052B0E
:1008700000F04083D4F8A420162A00F06182062BF1
:1008800000F03883D4F8C020162A00F05982072BD4
:1008900000F03083D4F8DC20162A00F05182082BB7
:1008A00000F02883D4F8F820162A00F04982092B9A
:1008B00000F02083D4F81431162B00F04182162169
:1008C000B54808F0AFFC0A21B44808F0ABFC05A815
:1008D0000DF026FDD4F81C31002B00F01684A2691F
:1008E0002D2A00F02582012B00F0BB83626B2D2A9C
:1008F00000F01E82022B00F0B483226D2D2A00F03E
:100900001782032B00F0AD83E26E2D2A00F01082D7
:10091000042B00F0A683D4F888202D2A00F008824A
:10092000052B00F09E83D4F8A4202D2A00F000822D
:10093000062B00F09683D4F8C0202D2A00F0F88111
:10094000072B00F08E83D4F8DC202D2A00F0F081F4
:10095000082B00F08683D4F8F8202D2A00F0E881D7
:10096000092B00F07E83D4F814312D2B00F0E081A8
:100970002D21894808F056FC0A21884808F052FCCD
:1009800005A80CF099FBD4F81C31002B00F0BF83B4
:10099000A269532A00F0C481012B00F03D83626BF1
:1009A000532A00F0BD81022B00F03683226D532ABA
:1009B00000F0B681032B00F02F83E26E532A00F083
:1009C000AF81042B00F02883D4F88820532A00F04C
:1009D000A781052B00F02083D4F8A420532A00F02F
:1009E0009F81062B00F01883D4F8C020532A00F012
:1009F0009781072B00F01083D4F8DC20532A00F0F5
:100A00008F81082B00F00883D4F8F820532A00F0D7
:100A10008781092B00F00083D4F81431532B00F0A8
:100A20007F8153215C4808F0FDFB0A215B4808F0F8
:100A3000F9FB05A80DF062FCD4F81C31002B00F086
:100A40005883A2694D2A00F06381012B00F09A823D
:100A5000626B4D2A00F05C81022B00F09382226DC4
:100A60004D2A00F05581032B00F08C82E26E4D2A56
:100A700000F04E81042B00F08582D4F888204D2AA6
:100A800000F04681052B00F07D82D4F8A4204D2A89
:100A900000F03E81062B00F07582D4F8C0204D2A6C
:100AA00000F03681072B00F06D82D4F8DC204D2A4F
:100AB00000F02E81082B00F06582D4F8F8204D2A32
:100AC00000F02681092B00F05D82D4F814314D2B03
:100AD00000F01E814D21304808F0A4FB0A212F4868
:100AE00008F0A0FB05A80CF053FED4F81C31002B35
:100AF00000F0FD82A269722A00F00281012B00F051
:100B00006682626B722A00F0FB80022B00F05F822B
:100B1000226D722A00F0F480032B00F05882E26EFE
:100B2000722A00F0ED80042B00F05182D4F8882066
:100B3000722A00F0E580052B00F04982D4F8A42049
:100B4000722A00F0DD80062B00F04182D4F8C0202C
:100B5000722A00F0D580072B00F03982D4F8DC200F
:100B6000722A00F0CD80082B00F03182D4F8F820F2
:100B7000722A00F0C580092B00F02982D4F81431C4
:100B8000722B00F0BD807221034808F04BFB0A2154
:100B9000024808F047FB03E0285202105C520210A2
:100BA00005A80AF077FBD4F81C31002B00F0A782CF
:100BB000A269062A00F09C80012B00F00681626B7E
:100BC000062A00F09580022B00F0FF80226D062A95
:100BD00000F08E80032B00F0F880E26E062A00F011
:100BE0008780042B00F0F180D4F88820062A7FD07B
:100BF000052B00F0EA80D4F8A420062A78D0062B32
:100C000000F0E380D4F8C020062A71D0072B00F052
:100C1000DC80D4F8DC20062A6AD0082B00F0D580CE
:100C2000D4F8F820062A63D0092B00F0CE80D4F83F
:100C30001431062B5CD00621C14808F0F3FA0A21D2
:100C4000C04808F0EFFAC04FD7E8AF3F13F00104F7
:100C500000F03382BD4BBE4CBE48236004F044FA22
:100C600004F0ECF9206807F0FBFE002840F01E823B
:100C70002368D86E07F0C4F80146B74804F0B4FA08
:100C800023681B681A689A1A1188082940F243825F
:100C90001289002A00F03F82995813440B44596886
:100CA00004315A580B449A1A1088062840F23682AA
:100CB000D1885C18002900F0318259580828615801
:100CC00040F22C8212899818002A00F027829B5843
:100CD000C258A24804F088FA1AE4A14A13600FE44B
:100CE000A04808F09FFA09219F4808F09BFA80E489
:100CF0009C4808F097FA06219B4808F093FAA2E76F
:100D0000984808F08FFA7221974808F08BFA47E765
:100D1000944808F087FA4D21934808F083FAE1E6F9
:100D2000904808F07FFA53218F4808F07BFA80E65C
:100D30008C4808F077FA2D218B4808F073FA1FE6EB
:100D4000884808F06FFA1621874808F06BFABEE56C
:100D5000844808F067FA0E21834808F063FA5DE5DD
:100D6000804808F05FFA11217F4808F05BFAF2E44E
:100D70007C4808F057FA03217B4808F053FA91E4C5
:100D80005A1C4FF00908C3EBC30304EB830CD4F8DF
:100D900070317649C4F81C2103F1480244F82280DE
:100DA0000DF1140E03F152020CF10407013344F863
:100DB0002210C4F87031BEE80F000FC79EE807008C
:100DC00087E80700CCF8188013E45A1C4FF0060897
:100DD000C3EBC30304EB830ED4F870316449C4F849
:100DE0001C2103F1480244F822800DF1140C03F198
:100DF00052020EF10407013344F82210C4F8703196
:100E0000BCE80F000FC79CE8070087E80700CEF892
:100E1000188018E75A1C4FF01108C3EBC30304EB0A
:100E2000830CD4F870315349C4F81C2103F14802F3
:100E300044F822800DF1140E03F152020CF1040764
:100E4000013344F82210C4F87031BEE80F000FC718
:100E50009EE8070087E80700CCF818807BE45A1C5E
:100E60004FF00308C3EBC30304EB830CD4F87031D9
:100E70004149C4F81C2103F1480244F822800DF1D5
:100E8000140E03F152020CF10407013344F822104E
:100E9000C4F87031BEE80F000FC79EE8070087E86E
:100EA0000700CCF81880FFF7FDBB5A1C4FF00E0866
:100EB000C3EBC30304EB830CD4F870312F49C4F89F
:100EC0001C2103F1480244F822800DF1140E03F1B5
:100ED00052020CF10407013344F82210C4F87031B7
:100EE000BEE80F000FC79EE8070087E80700CCF8B0
:100EF000188093E45A1C4FF01608C3EBC30304EBAD
:100F0000830CD4F870311E49C4F81C2103F1480247
:100F100044F822800DF1140E03F152020CF1040783
:100F2000013344F82210C4F87031BEE80F000FC737
:100F30009EE8070087E80700CCF81880C7E400BFE8
:100F4000285202105C52021058930020E4940020B2
:100F5000E8A20020C4520210085302103C530210B1
:100F6000F4A2002070520210A05202105D9E0010E8
:100F7000759C00101D9F00109B9D0010799C001017
:100F800011A000105A1C4FF04D08C3EBC30304EB33
:100F9000830CD4F870316349C4F81C2103F1480272
:100FA00044F822800DF1140E03F152020CF10407F3
:100FB000013344F82210C4F87031BEE80F000FC7A7
:100FC0009EE8070087E80700CCF818808AE55A1CDD
:100FD0004FF07208C3EBC30304EB830CD4F87031F9
:100FE0005149C4F81C2103F1480244F822800DF154
:100FF000140E03F152020CF10407013344F82210DD
:10100000C4F87031BEE80F000FC79EE8070087E8FC
:101010000700CCF81880C3E55A1C4FF05308C3EB07
:10102000C30304EB830CD4F870314049C4F81C218D
:1010300003F1480244F822800DF1140E03F152022C
:101040000CF10407013344F82210C4F87031BEE8F3
:101050000F000FC79EE8070087E80700CCF818804C
:10106000E7E45A1C4FF02D08C3EBC30304EB830CD9
:10107000D4F870312E49C4F81C2103F1480244F819
:1010800022800DF1140E03F152020CF1040701331A
:1010900044F82210C4F87031BEE80F000FC79EE874
:1010A000070087E80700CCF8188069E4A9682148A0
:1010B00004F09AF81F48FFF728BA384619F0E2FC06
:1010C00000283FF4C7AD4FF4804C31681A4B1B4ADF
:1010D000CDF800C0CDE902440194194807F0F0FAB8
:1010E000184821F0C7FD384619F0E8FCB2E50122A6
:1010F0006EE7012247E70122FDE60122D6E6012242
:1011000064E60122ACE6012285E60122AAE701227B
:1011100083E7012235E600235B68FFDE00231B68BE
:10112000FFDE00BFAD9F00107D9C0010B19C001041
:10113000019D0010DC52021050A30020609300209B
:10114000E49400209903001010B54FF050446368F8
:10115000DA0305D40A2001F00FF86368DB03F9D540
:101160004FF050446368D80305D50A2001F004F815
:101170006368D903F9D44FF05044642000F0FCFFB9
:101180006368DA0305D40A2000F0F6FF6368DB0326
:10119000F9D510BD2DE9F84F19202DED028B00F087
:1011A0009DF90F2000F09AF9102000F097F94FF008
:1011B0000105192345EC44300F2445EC4440102030
:1011C0004FF0000646EC44000022012100F036F901
:1011D00003F046FF684803F087FF4FF4FA7000F011
:1011E000CBFF45EC4040654803F07EFF4FF4FA70BA
:1011F00000F0C2FF6248FFF76DF9FFF7A5FF46EC6C
:1012000040404FF4FA7000F0B7FF45EC40404FF417
:10121000FA7000F0B1FF46EC40404FF4FA7000F075
:10122000ABFF45EC40404FF4FA7000F0A5FF554885
:1012300003F05AFF46EC40404FF4FA7000F09CFF78
:101240009FED518A4FF0000B504C514EDFF830911A
:10125000DFF850814F4F022006F0B0FB0022012141
:10126000102006F01FFC06F04BFC01F077F8002977
:1012700079D04FF47A72002323F046FF054600210F
:10128000306807F07BFA00218246306807F098FA50
:1012900001F064F8404AF7EE006A1346B3EC017AB5
:1012A00037EE487AC7EE087AF5EEC07AF1EE10FA1A
:1012B00041D4F4EEE67AF1EE10FA76FEA77A9C427B
:1012C00043ED017AEAD199F80C30DAF81000002BDE
:1012D0003BD0DAED036A9AED026AF8EEE66A01386D
:1012E000B2EC017AC7EE067AF8FE677A77EEA67A54
:1012F000FDEEE77A17EE903A944283F3080300F884
:10130000013FEDD1306807F097FC40BBD8F80030C2
:10131000986822F001FB03F091FE01F01FF831B351
:101320004FF47A72002323F0EFFE0146491B1B485D
:1013300003F05AFF8FE79C4243F804BCAED199F802
:101340000C30DAF81000002BC3D11349DAF818205A
:1013500023F05EFB306807F06FFC0028D6D0104801
:1013600003F0C2FED2E7A7FB00239D0987E7A7FB96
:1013700000239909DAE700BFB0530210D0530210DE
:1013800058260020EC530210000048425827002045
:10139000E8A20020D34D6210682600200C540210F1
:1013A000A05302106C9000200022064906480968EC
:1013B000064B41600649C3F81C211960C3F870212F
:1013C000704700BF58270020582600206093002057
:1013D0001C71021008B54FF4E131074801F008F81C
:1013E0000221002000F00CF80221012000F008F892
:1013F000024B1B7808BD00BF00000740FCA502108F
:1014000010B44FF480740C4B53F8202003EB80038E
:10141000C00082F0400200F1804003F5805C02F0E1
:10142000C00200F5203003F54053CCF800204160A5
:101430001C605DF8044B70470480034010B4084CF6
:10144000C90041EA820154F8202004EB8003514096
:1014500003F5805301F00C015DF8044B19607047EF
:101460000480034000F0070C0C4B10B4C0080C4C77
:101470004FEA8C0C01FA0CF103EB80038C3044F83A
:1014800020102AB103F500535DF8044B1960704732
:1014900003F540535DF8044B19607047D882024051
:1014A0000080024000F00703034AC0089B009940F7
:1014B0008C3042F82010704700800240064B4022DA
:1014C00003EB800319B103F500531A60704703F56D
:1014D00040531A60704700BF0480034030B44FF09F
:1014E000000343EC440043EC400005254FF48074B6
:1014F0000B4BC20053F8201003EB800081F0400139
:1015000002F1804303F5203301F0C00200F5805161
:1015100000F540500A605D60046030BC704700BF59
:10152000048003400FB400B583B0049C074803F067
:10153000DBFD3CB105A92046019103F095FB044871
:1015400003F0D2FD012003F0A7FB00BF20540210DE
:10155000F067021070B58646EFF3108572B6124C34
:10156000D4E8CF6F0120002EFAD1C4E8460F002E38
:10157000F6D1BFF35F8F4FF0010CC80801F00703ED
:101580000CFA03F31EF800C01CEA030608D14CEA6B
:10159000030C0EF800C0C4E88F6F85F3108870BD8F
:1015A0001046FFF7BFFF00BF2B9A0020F8B5EFF3FE
:1015B000108772B61C4ED6E8CF5F0124002DFAD1F9
:1015C000C6E8454F002DF6D1BFF35F8F9A421BD876
:1015D000012502E00132934222D3D40810F804E03E
:1015E00002F0070C05FA0CFC1EEA0C0FF2D14EEAD1
:1015F0000C0E00F804E010460023C6E88F3F87F386
:101600001088984207DBF8BD0023C6E88F3F87F3B8
:1016100010884FF0FF300029F5D00698FFF782FFC1
:101620004FF0FF30E8E700BF2B9A0020044A107803
:10163000431CDBB2182B28BF10231370704700BF68
:10164000AC8B002010B5054C82B001461F23182238
:1016500000940348FFF7AAFF02B010BD30540210F7
:10166000789E00204FF0E022936843F0005393608F
:10167000704700BF0021044B03F12002C3E88F1F15
:1016800001339342FAD17047209A00204FF0E023B3
:101690004FF08032C3F80024C3F80424C3F80824B0
:1016A000C3F80C24C3F81024C3F81424C3F8182476
:1016B000C3F81C24C3F82024C3F82424C3F8282426
:1016C000C3F82C24C3F83024704700BF012300F076
:1016D0001F029340400941B1800000F1604000F5D5
:1016E0006140C0F8803103607047024A203042F800
:1016F0002030704700E100E00123064A410952F81A
:10170000212000F01F0003FA00F01040003818BF3D
:101710000120704700E100E001224309034900F085
:101720001F008240403341F82320704700E100E071
:10173000054A10309268054B52F82000C01A2F2835
:101740008CBF00200120704700ED00E0B08B00202E
:10175000F8B50D46EFF3108772B6124ED6E8CF2FCC
:101760000123002AFAD1C6E8423F002AF6D1BFF38E
:101770005F8F0D4B00F110049B680C4A53F8243026
:10178000934203D0994201D001F0D8F8064B9B68F0
:1017900043F82450BFF35F8F0023C6E88F3F87F3E1
:1017A0001088F8BD299A002000ED00E01D0100100E
:1017B0002DE9F04F81468B46164683B0EFF3108338
:1017C00072B6DFF8D0A10093DAE8CF1F0123002919
:1017D000FAD1CAE8413F0029F6D1BFF35F8F664BCB
:1017E00093F90040002CC0F2A080644D04EB440744
:1017F00005EB870898F8061009F110091970604B7D
:10180000BF009B6853F829006300411B2F292FD983
:101810005C49884240F0A4801C445B4B02372F4453
:10182000043BDB1BC3F34A036FEAC3434FF421417C
:101830006FEAD34325F8241005EB840463804BF64C
:101840000153A380FF2348F00100E671C4F808B0FB
:10185000A3714B4B9B6843F82900BFF35F8F0023B4
:10186000CAE88F3F009B83F3108803B0BDE8F08F78
:1018700020F0010E9EF80710B1422ED84FF42143FC
:10188000EB53414BB91C2944043B04375B1A2F44EA
:10189000AEF10401C91BC1F34A043C49C3F34A0336
:1018A0000B432143A8F804103949A8F802304AF63E
:1018B000AA2073465B1B5B415843000D88F8076004
:1018C00088F80600C8F808B048F00100CEF800100B
:1018D000BFE7D179B1422ED996469EF906C00CEBEE
:1018E0004C02BCF1000F05EB8202F2DA4BF601511B
:1018F0000EF10402A8F10407BF1AC7F34A076FEA02
:10190000C7476FEAD7478EF8064003EB0408204C20
:1019100005EB8803AEF8047045F82840998083F8F9
:1019200006C0DE71C3F808B093E701F007F8124B68
:1019300093F9004059E7724632F8041F490514D460
:101940004915023102EB410101916FF00701C91BFA
:10195000019F491B3944C1F34A0141F46041C9E781
:10196000019300F0EBFF019B56E701F5FF1101F534
:10197000FF511F31E4E700BF6EE30020B08B002071
:1019800000ED00E01D010010E08B002000E0FFFFF3
:1019900001488047299A0020F0B5EFF30585EDB2A4
:1019A000EFF3108C72B62649D1E8CF2F0123002A1D
:1019B000FAD1C1E8423F002AF6D1BFF35F8F214E32
:1019C00040F0010EB4684AF6AA2354F825701E4A66
:1019D0000446A41A644163431B0D77455BB21BD0D8
:1019E00092F906409C421CD092F912409C4223D0AE
:1019F00092F91E409C4221D092F92A409C4208BF95
:101A000003240FD0114A0024157813708571C1E8A2
:101A10008F4F8CF31088F0BDB2680D4C42F8254012
:101A2000F0E7002404EB440402EB8402FF249471E9
:101A30004BF601549480E5E70124F3E70224F1E733
:101A4000299A002000ED00E0B08B00206EE300201A
:101A50001D01001010B5074C82B00146052300227D
:101A600000940548FFF7A2FD0028A8BFC0F133008D
:101A700002B010BD4C54021072E30020014B0B4425
:101A800003607047209A002070B5104C104DAC4296
:101A90000ED2FF26236863B1FFF7C8FD014620463A
:101AA000FFF7ECFFA680BFF35F8F0834AC42F1D3A1
:101AB00070BDFFF7BBFD01462046FFF7DFFF267133
:101AC000BFF35F8F0834AC42E4D370BDB8910020FF
:101AD000C091002010B50446FFF7A8FD014620463E
:101AE000FFF7CCFFFF232371BFF35F8F10BD00BF53
:101AF00010B504460120FFF7A5FD034B0344236006
:101B0000BFF35F8F10BD00BF209A0020024B0B4433
:101B10000360BFF35F8F7047209A00200D4B1A6857
:101B2000EFF3108172B6D2E8CFCF0120BCF1000FE5
:101B3000F9D1C2E84C0FBCF1000FF4D1BFF35F8FB5
:101B400000221B68C3E88F2F81F3108840BF00205C
:101B50000021704744A300202DE9F04F2DED028BAA
:101B600085B0EFF30583DBB2103B9A0818BF012262
:101B70004FF0010103F0030B18BFAF4DAF4B08BF8F
:101B8000AF4D0BEB820253F8226001FA0BF205F520
:101B900041539FEDA78B01925A602FE0B3881C043C
:101BA00040F19380B379002B40F0DD80B6F9082036
:101BB000002AC0F21E81736902EB420203EBC203EA
:101BC000D3E90247B7F1FF3F08BFB4F1FF3F0ED0A2
:101BD00005EB8B01AB6A0A69D21AE31A934205D36B
:101BE00001232A6A03FA0BF3134200D10C61284641
:101BF00000F0ACFBA042B941C0F2FB80B6F908305E
:101C0000019A002B0093EA63C8DBD6F8148003EB3B
:101C10004309284608EBC907D7E9024A00F096FBBA
:101C2000A04271EB0A01B9DBBAF1000FC0F2C38028
:101C3000D7E90431834A934200F0ED807A88B6F9FF
:101C4000080092B242EA0040984702460B4652EA28
:101C5000030100F0B080002B80F2D180B4EB020EC3
:101C60006AEB030A38F93930C7E902EA002B95DB41
:101C7000716903EB430201EBC202D2E90270BE4577
:101C80007AEB000C4FEA430288DBB4462CF8083F9D
:101C900006E003EB430001EBC0005A00D0E90270FC
:101CA000BE451A447AEB000001EBC20404DB31F9B3
:101CB0003230A446002BECDA28F83930009BACF81F
:101CC0000030B3881C043FF56DAF3369EFF3108229
:101CD00072B6D3E8CF0F01210028FAD1C3E8401F24
:101CE0000028F6D1BFF35F8F4FF6FF74B088002352
:101CF000316900B2B480C1E88F3F82F31088984206
:101D0000FFF650AF0746A946746906F1080807EBCD
:101D1000470E04EBCE03D3E90250B6F90830C446AF
:101D2000002B13DBB246009704E034F936309446BA
:101D3000002B09DB03EB430604EBC602D2E9027178
:101D4000BD4270EB0101F0DA5646009FACF800701E
:101D500034F93E7024F83E30002FD8DAB3794D467E
:101D6000002B3FF423AF0023B371B6F9083006F11E
:101D70000808581C3DD01A46776903E08046591C74
:101D80003FF416AF03EB430107EBC100B0F802C00C
:101D90001C461CF4004F9E4637F93130EED0944279
:101DA00080ED028B05D0A8F80030328927F8312069
:101DB00034817246E3E738F8393033813369EFF321
:101DC000108272B6D3E8CF0F01210028FAD1C3E800
:101DD000401F0028F6D1BFF35F8F7388316928F860
:101DE0003930009B73800023C1E88F3F82F3108855
:101DF000D4E640BF05B0BDEC028BBDE8F08F2846AD
:101E0000CDE9022300F0A2FA029A039B10EB020E26
:101E100043EB010A26E708460B6902919847002820
:101E2000C9D00299D1E9002311E700BFAFF30080C8
:101E3000FFFFFFFFFFFFFFFF00800B401CA3002000
:101E400000000B40591B00102DE9F84F364C256956
:101E50002DB1BDE8F84F0A213448FFF70FBEDFF877
:101E6000E4800321404600F05FFA0326C4F80C80AA
:101E7000FFF7DCFB4FF0504C2D4B267003442361E1
:101E8000DCF800300F216370636961801D834FF0BF
:101E90000405A3F878504FF00505A3F890504FF0D3
:101EA0000605A3F8A8504FF007050E214FF6FF7264
:101EB00008274FF00A0EA3F8C0504FF001094FF069
:101EC0000C0C4FF0020B4FF0090A0D204FF00B05E0
:101ED000A3F868111749A280A3F808E1A160A3F84C
:101EE00048B0A3F8F0A0A3F82051A3F838C1A3F894
:101EF0005001A3F83090A3F86060A3F8D8701A805E
:101F00000D4B3046C8F820700C49DC60FFF720FC10
:101F100049463046FFF7DAFB094B0A211F640348A4
:101F2000BDE8F84FFFF7AABDF88B002044A30020BE
:101F3000209A0020FFFF10001CA30020591B001056
:101F400000200B4000000B4000487047F88B002039
:101F5000F8B59DF82050044617461E4635B900F0E6
:101F6000FDF9874266EB010100295CDB2169EFF393
:101F7000108372B6D1E8CF0F01220028FAD1C1E850
:101F8000402F0028F6D1BFF35F8FB4F902206569B6
:101F900002EB4201002A4FEAC10C206905EBC101A6
:101FA00039DB35F80CE0A4F802E04FF0000EC0E891
:101FB0008FEF83F310884888069B0130C0F30E0032
:101FC000012838BF01200B61079B48804B61C1E9A4
:101FD000027640EA02402369EFF3108172B6D3E83B
:101FE000CF7F0126002FFAD1C3E8476F002FF6D12B
:101FF000BFF35F8FA38825F80C30A2802369C3E864
:102000008FEF81F310880122E368217803F50153F3
:102010008A405A60F8BD0022C0E88F2F83F31088F1
:102020004FF0FF30F8BD2846F8BD00BF0146F0B5BF
:102030000069EFF3108772B6D0E8CF5F0124002D5E
:10204000FAD1C0E8454F002DF6D1BFF35F8FB1F94B
:1020500002E04C690EEB4E0CBEF1000F4FEACC05CE
:10206000086904EBCC0C3CDB665B4E800026C0E8C4
:102070008F6F87F31088BCF80200CCE9022301308F
:10208000C0F30E00012838BF0120059BACF8020008
:10209000CCF81030069B40EA0E40CCF814300B69A7
:1020A000EFF3108272B6D3E8CFCF0127BCF1000F57
:1020B000F9D1C3E84C7FBCF1000FF4D1BFF35F8FBF
:1020C0008B886353A1F804E00B69C3E88F6F82F338
:1020D00010880122CB68097803F501538A405A60C1
:1020E000F0BD0023C0E88F3F87F310884FF0FF302A
:1020F000F0BD00BF03464089B0EB214F37DD586982
:102100000A1402EB420210B500EBC2001C69EFF3A7
:10211000108C72B6D4E8CFEF0122BEF1000FF9D1D6
:10212000C4E84E2FBEF1000FF4D1BFF35F8F428899
:1021300089B292B28A4207D000221B69C3E88F2F6E
:102140008CF31088002010BD42F40042428001212F
:10215000002218699971C0E88F2F8CF310881C78C1
:10216000DA68084602F50153A140596010BD00200D
:10217000704700BF407870472DE9F04182B00646B5
:1021800000F0ECF84FF47A7304464FF0FF306FF034
:102190000042E6FB0341A04272EB01033ABF044652
:1021A00015460D46A61F45F1FF37B44275EB0703F0
:1021B0003CBF0026374600F0D1F8301A67EB01012A
:1021C000012871F1000106DA2046294602B0BDE877
:1021D000F04100F0FBB800F0C1F8864267EB010166
:1021E00000290ADB0021174B3246009316483B4674
:1021F0000191FFF71BFF0130E6D04FF0000C134AAE
:102200001349536A9F4204D8906AB042DCD29F427D
:10221000DAD10B68EFF3108072B6D3E8CF8F5FF09E
:10222000010EB8F1000FF8D1C3E848EFB8F1000F84
:10223000F3D1BFF35F8F0B68C3E88FCF80F31088B3
:1022400020BFDEE71D1B0010F88B002000000B40B4
:1022500044A300202DE9F04306460D4683B0EFF37A
:102260000584E4B23CB12D4B5A6AAA421CD200202C
:1022700003B0BDE8F0832A4FD7F80C9097F80080A0
:10228000484600F063F808F1040859F828301B1A92
:10229000301A65EB0101984271F1000110DB20BF9B
:1022A0001E4B5A6AAA42E2D314BF012400249B6A3F
:1022B000B34234BF204644F0010003B0BDE8F083D0
:1022C00000F04CF8864265EB0101002914DB154B48
:1022D0003846CDE9003432462B46FFF7A7FE011EF3
:1022E0000ADD0E4B5A6AAA4216D39B6AB34211D337
:1022F0000B48FFF7FFFEB6E7084B5C6AAC42B6D36B
:10230000641B18BF01249B6AB34234BF204644F0CB
:102310000100ADE7AA42EBD120BFE9E700000B4086
:10232000F88B00201D1B001010B4054B054C064A0D
:10233000A04214BF1846581C5DF8044BFFF70AB9B9
:102340007C9E002000800B40685402100346416AC6
:102350000A46986A596A8A42FAD17047034B596A09
:102360000A46986A596A9142FAD1704700000B40B8
:1023700030B4154A536A9C46946A536A6345FAD14D
:10238000021959414FF0000528BF01250E4B5B6A29
:10239000B5B15A1C08BF1A4608D04FF0FF310A46A3
:1023A0000948436A8B42FCD38B4207D1064902E0BD
:1023B000486A984202D1886A9042F9D330BC70478B
:1023C0009942EDD8F0E700BF00000B40074A536A7E
:1023D0009942FCD8994207D1044B02E05A6A9142D3
:1023E00002D19A6A9042F9D8704700BF00000B40B2
:1023F000F8B5054606200E4600F076F9002842D0D2
:10240000354A3648954214BF4FF080624FF0006263
:10241000334B344902601A608C6832EA0404FBD101
:102420002D4B4FF48071EB1AB3FA83F32E4A5B09FC
:10243000062022F8131000F057F9C300B3FBF6F39F
:102440000133DA0920D1402601216962AA622F6B8B
:10245000FB0722D42B46002253F82C1F062003F53D
:10246000805422602F6300F03FF940F201310322D3
:102470008000B0FBF6F0EB6A83F0700303F07E039C
:1024800023602963AA64F8BD4FF6FE718A421BD906
:1024900022464FF6FF71154ED7E740F2013205F59F
:1024A00040531A636B6AAC6A062004EB831400F095
:1024B0001BF90F4BA402A3FB0023DB0A0021B4FB92
:1024C000F3F0FFF755FFC5E7C3F34503114603EBF0
:1024D00082161A46B9E700BF00800740002002407C
:1024E000003002400000024050E30020C0FF3F00E7
:1024F000757B2B8F10B400214FF4006400EB400378
:102500009B00054A03F1804303F598331C6042F8B1
:1025100020105DF8044B7047809E00202DE9F047A5
:10252000089C9C4272D806464FEA13491D040F4688
:102530000023904628462246494622F0E5FD06EB58
:102540004604A40004F1804482460B4604F580341E
:10255000002936D128464946524622F0D5FD636807
:10256000311F9A45C9B288BFC4F804A00129D146D9
:1025700005462ED94FF40060264A04F540531860F2
:1025800052F8260038B15369B3FBF0F3013303EB83
:102590004303033BFDD2236804F5805083EA4813CC
:1025A00003F0E0030129036025D942F826504FF4D7
:1025B000006204F500531A600120C4F80490BDE8DD
:1025C000F087311FC9B201294D4663684FF00009F9
:1025D000D0D8012FCED1032204F540531A60A3684E
:1025E000DB07FCD5236804F5805083EA481303F029
:1025F000E003084A036001212368B9407B4003F0EF
:1026000003030360A3680B42FCD0CEE70020BDE8C3
:10261000F08700BF809E002000EB400C4FEA8C0C3E
:102620000CF1804C0CF5803CF0B51646DCF804202B
:10263000051FB2F5803F38BF4FF48032EDB238BF8E
:10264000CCF80420012D2AD94FF40067254C0CF555
:102650004052176054F82020B2B9DCF80020012D58
:1026600082EA461202F0E0020CF5805632602AD966
:102670004FF4006144F820304FF480330CF50052E1
:102680001160CCF80430F0BD6769B7FBF2FE0EF1C3
:10269000010E0EEB4E0EBEF1030EFCD2DDE701295A
:1026A000D2D103240CF540521460DCF80820D20784
:1026B000FBD5DCF800200B4C82EA461202F0E00267
:1026C0000CF5805632600122DCF800504D4005F0D8
:1026D0000305356002FA01F1DCF808200A42FBD05C
:1026E000C6E700BF809E0020014B53F820007047D2
:1026F000809E002070B4039D04682D0345EA0345C5
:102700001B4B002CB3FBF1F3B2FBF3F61FDB194AB2
:10271000194B904214BF4FF480424FF40042174CC3
:102720001A6003F580531A60A36832EA0303FBD1F1
:10273000212200F540530433016086601A6002686C
:10274000002AFCDA0822C5601A6070BC7047036872
:1027500003F03F038B42DAD18368C3F30B03B34228
:10276000D5D1C36803F4EE23AB42D0D1EDE700BF6F
:10277000001BB7000080054000200240000002401E
:102780002D234360704700BF30B44FF080441C4B92
:102790001C60E0B11B4CA3F54053DC611A4C40F0C7
:1027A000010044401C62596298624FF080454FF02E
:1027B000E061134B1548164C1D60846019604AB9DE
:1027C00030BC4FF00042A3F580531A607047114BA4
:1027D000D861EAE74FF47A7303FB02F2B2F1807F2B
:1027E0002ABF6FF07F4313461A464FF080410A4CD0
:1027F00008482360094B426030BC1960704700BF35
:1028000000B00D40D3C007B02D3FF84F00A00140ED
:10281000F3FFFF0100800D40F0A2002000A00D405A
:10282000012300EB4000800000F1804000F584109F
:1028300041600360704700BF002370B5DB8A044627
:102840000D46002242E800F2520254BF102104213A
:1028500044F25220984786462B462246F446BDE86D
:1028600070400A214FF48170604700BF0023DB8A6B
:10287000002242E800F2520201D41021184704213C
:10288000184700BF08B503460846191E02DB1AB1F7
:1028900040F03000FFF7D0FF40F02000FAE700BF23
:1028A000034AD2F82838002BFBD0BFF35F8F704764
:1028B00000000E400021044B044ABFF35F8F43F831
:1028C000041B9342F9D170470C080E402C080E40AF
:1028D00010B44FF48D704FF42A64064A064B074932
:1028E0001460D06019605368002BFCDA5DF8044B6B
:1028F000704700BF0080044000A0044000B0FA0010
:10290000064A13686FF3173343F4510343F46043EB
:1029100013605368002BFCDB704700BF008004404D
:10292000034A044B93605368002BFCDA704700BFE6
:1029300000800440616D6F63704700BF08B50148B7
:10294000FEF7F0FD8C54021038B5054C054DAC4235
:1029500004D254F8043B9847AC42FAD338BD00BFC8
:1029600080510210C051021010B40748074C084BA8
:10297000084A094904601A608B6832EA0303FBD1F4
:102980005DF8044B704700BF002002407F3BEFEF33
:1029900000300240F6FFF30300000240044BDB6C02
:1029A000B3F5004F03D14FF48022024BDA64704735
:1029B00000001150002011504FF0E022044BD2F8DB
:1029C000881D0B43C2F8883D10EE3004704700BFED
:1029D000030330006FF06041044B054A19609368AF
:1029E000DB4333F06043FAD1704700BF0030024050
:1029F0000000024010B545F25320FFF737FFBDE855
:102A0000104003460420184710B545F25320FFF745
:102A10002DFFBDE81040034601201847FEF72ABEEF
:102A200010B5054B054C4FF488721846A16821F08B
:102A3000EFFFA06010BD00BF0000002000ED00E02F
:102A4000002370B52B4C82B0C4F88430FFF740FFF0
:102A50000122294BDA63636C012BFCD10321264A46
:102A6000244B11639C6B012CFCD1022605252146C9
:102A70000523224A22480096FFF73CFE21462B46BA
:102A8000204A21480095FFF735FE002204203146F8
:102A90001E4BFFF7C1FD2146284600221C4BFFF7C5
:102AA000BBFD0022082011461A4BFFF7B5FD00229E
:102AB00009201146174BFFF7AFFD002206201146F3
:102AC000134BFFF7A9FD0022114B07201146FFF71A
:102AD000A3FD0420FFF708FE00240F4BA3FB0035E5
:102AE000AD0CE0B229460134FFF79AFE062CF8D16E
:102AF00002B070BD0000014000300140002F685955
:102B000000000540008C864700800540001BB70090
:102B100080D1F008006CDC0283DE1B43C1F30A5352
:102B2000A3F2FF335A1C8C462ADB2DD0342B26DA35
:102B3000012270B502210546C3F13304C3F1130E1F
:102B4000133B22FA03F302FA0EFE4EEA030EA4F13F
:102B5000200002FA04F3C4F120065B1921FA06F6FC
:102B600001FA00F001FA04F14CEB0E0C30434A423A
:102B700060EB400E0EEA0C0102EA030070BD7047E4
:102B8000002001F00041704701F0004C4CF07F51F3
:102B9000002041F440117047C1F30A530A4673B351
:102BA000A3F2FF33002B24DBC3F13403002B2ADD17
:102BB00010B501248446A3F12001C3F1200024FABA
:102BC00000F004FA03F304FA01F10143581E41F145
:102BD000FF3400EAE27010EB0C0E04EAE27042EB04
:102BE00000025B4261EB410C0EEA030002EA0C01B9
:102BF00010BD00294FF0000006DA0449704718465E
:102C000001F0004170477047002170470000F0BF9D
:102C100086B003B451FC0804CDE9020151FC09045B
:102C2000CDE9040151EC0A04CDE9060103BCF047EB
:102C3000BDE800504EEC00C4BDE800504EEC01C4AD
:102C4000BDE800504EEC02C400BD000000B5FFF727
:102C5000DFFF02E010FE30F4F8D441EC100443EC46
:102C6000112400EE010410EE010480EE200451EC6A
:102C70001004704700B5FFF7CBFF02E010FE30F400
:102C8000F8D441EC100443EC112400EE010410EEE2
:102C9000210480EE200451EC3004704700B5FFF7AA
:102CA000B7FF02E010FE30F4F8D410B541EC100488
:102CB00043EC112451EC040453EC0524A0FB024C1A
:102CC0005FF0000EE0FB03CEE1FB02CE4CEC2044B3
:102CD0000024E1FB03E444EC30E480EE200451ECFA
:102CE0005004BDE81040704700B5FFF791FF02E0C7
:102CF00010FE30F4F8D441EC100443EC112451ECF4
:102D00002104A0FB01126FEA820252FB100052FB69
:102D100012F252FB1000A0EBD07C53EC04245CFBBD
:102D200013F153EC1524A1FB022001FB030053EC2B
:102D30004424A2EB000050FB1CF24FEA111312EBEB
:102D4000017043EBE27140EA515020EA915020F0CB
:102D5000070053EC7524A0FB023C53EC752400FBE8
:102D600003CC01FB02CC53EC0424ACEB824C40EAD4
:102D70005C70A0F1010041EC400480EE200451ECB5
:102D80007004704700B5FFF743FF02E010FE30F417
:102D9000F8D441EC100480EE220410EEB204704727
:102DA00000B5FFF735FF02E010FE30F4F8D440EC38
:102DB000700400EE010410EE210480EE200451ECBA
:102DC0003004704700B5FFF723FF02E010FE30F437
:102DD000F8D440EC600400EE010410EE210480EE13
:102DE000200451EC3004704700B5FFF711FF02E0FA
:102DF00010FE30F4F8D441EC800400EE010410EE33
:102E0000010480EE400410EE1304704700B5FFF794
:102E1000FFFE02E010FE30F4F8D441EC800400EE36
:102E2000010410EE010480EE400410EE33047047FC
:102E300000B5FFF7EDFE02E010FE30F4F8D441ECEF
:102E4000100443EC112400EE010410EE3004C0F332
:102E50000070704700B5FFF7DBFE02E010FE30F4B3
:102E6000F8D441EC100443EC112400EE010410EE00
:102E70003004C0F38070704700B5FFF7C9FE02E070
:102E800010FE30F4F8D443EC102441EC110400EEB1
:102E9000010410EE30F48CBF01200020704700BF09
:102EA00000B5FFF7B5FE02E010FE30F4F8D443ECB5
:102EB000102441EC110400EE010410EE30F42CBF9C
:102EC00001200020704700BF00B5FFF7A1FE02E01F
:102ED00010FE30F4F8D441EC100443EC112400EE61
:102EE000010410EE30F42CBF01200020704700BF19
:102EF00000B5FFF78DFE02E010FE30F4F8D441EC8F
:102F0000100443EC112400EE010410EE30F48CBFE9
:102F100001200020704700BF0022002950DA404203
:102F200061EB4101C9B1B1FA81F30B3B17D4D3F185
:102F3000200C30FA0CFC9840994051EA0C011A44DC
:102F4000524202F2324201EB025141F0004140F2A2
:102F5000FE739A4238BF704721E011467EE003F1CC
:102F6000210310FA03FCA3F1010301FA03FCC3F1EE
:102F7000200320FA03F021FA03F140EA0C00A3EB4E
:102F8000020202F2324214D050F1000041EB025131
:102F900041F0004140F2FE739A4238BF70474FF053
:102FA0000001A8BFC7F6F0714FF000007047002184
:102FB0007047EBD350F1000020F00100E6E700225B
:102FC000B9B1B1FA81F30B3B16D4D3F1200C30FA2E
:102FD0000CFC9840994051EA0C011A44524202F20A
:102FE000324201EB025140F2FE739A4238BF704701
:102FF00020E0114600F066B803F1210310FA03FC4B
:10300000A3F1010301FA03FCC3F1200320FA03F04A
:1030100021FA03F140EA0C00A3EB020202F2324271
:1030200012D050F1000041EB025140F2FE739A427F
:1030300038BF70474FF00001A8BFC7F6F0714FF0DE
:103040000000704700217047EDD350F1000020F0E0
:103050000100E8E7002880F235804042B0FA80F3B2
:103060000B3B11D4984001EB0302524202F2124290
:1030700000EB025141F000414FF0000040F2FE73BE
:103080009A4238BF704713E0C3F1000330FA03FCE3
:10309000C3F120029040A3EB010202F212420CEBBA
:1030A000025141F0004140F2FE739A4238BF70472E
:1030B0004FF00041A8BFCFF6F0714FF0000070470D
:1030C0000021704760B3B0FA80F30B3B0FD49840F7
:1030D00001EB0302524202F2124200EB02514FF0A6
:1030E000000040F2FE739A4238BF704710E05B4226
:1030F00030FA03FCC3F120029040A3EB010202F27C
:1031000012420CEB025140F2FE739A4238BF7047F4
:103110004FF00001A8BFC7F6F0714FF000007047F4
:10312000002170470022A2F232425FEA215CACF13A
:103130000103A1EB03515B0513F5800F32D212EBB3
:10314000535210D40B2A36DA9140D2F1200330FAD0
:1031500003F319439040BCF1000FA8BF70474042F1
:1031600061EB4101704720320EDD01FA02F3D2F12A
:103170002002D140D0401843BCF1000FA8BF7047D7
:10318000404261EB41017047524282F3050231FA3D
:1031900002F00021BCF1000FA8BF7047404261EB74
:1031A0004101704702D000200021704750EA0131F0
:1031B00018BF4FF0000C6FF0004101EBDC716FEABB
:1031C000EC70704700000000C11545D4852932DA43
:1031D000012262F3DF507E392AD400FA01F041F671
:1031E0009553C5F6554380FB03012BA292EC034A8D
:1031F000820D61F39A2200EE102ABBEEC00A60EE47
:10320000000AC1F3444220EE042A26A320EE201A2D
:1032100053F8222000EEA42A891501EE052A02EBBC
:10322000C15200EE102A00EE020A10EE100A70479A
:103230004942C840D3E747F21822C4F2B122904273
:10324000C6D3B0F1FF4F02D950F48000704740F26E
:103250000000C7F68070704711F17B0F0CDA012275
:1032600062F3DF50823105D54942C84040F1000089
:103270004042B4E78840FBE74AF64F42CCF2AE2228
:103280009042ECD910F5000F02D950F4800070473D
:103290004FF00000704700BF1872313FF0FD753EDF
:1032A0004758633D0000803F87CD823FC3AA853FDA
:1032B0000F98883FC2958B3F3AA48E3FD3C3913F6E
:1032C000F0F4943FF037983F3A8D9B3F32F59E3FA4
:1032D0004370A23FD7FEA53F5BA1A93F3F58AD3F3A
:1032E000F623B13FF304B53FAFFBB83FA408BD3FA1
:1032F0004D2CC13F2A67C53FBEB9C93F8C24CE3F84
:103300001EA8D23FFD44D73FB8FBDB3FDFCCE03FF8
:1033100007B9E53FC7C0EA3FBAE4EF3F7D25F53F77
:10332000B383FA3F00000000B0F1FF4F3ED2C11559
:103330003ED04FF0010262F3DF5038BF400026A3B9
:1033400093EC034AAFF21C0303EB104323F0070393
:10335000D3E9002300FB02F040EC103AFAEEC00A79
:1033600020EEA01A61F17E0160EE811AC90521EEFE
:10337000012A40F6FC3221EE041AC5F6B90261EECC
:10338000A41A51FB12F122EE052A03EE901A71EEF7
:10339000C21AFAEEC53A31EE611A70EEC10A30EE89
:1033A000200A30EE230A10EE100A704705DC0BD01D
:1033B00010F1FF4F09D310F5000F40F4800003D83F
:1033C00040F20000CFF6C070704740F20000CFF628
:1033D00080707047AFF300800000003FABAAAA3EA8
:1033E0000000803E000000005501000001CB92BEAD
:1033F00048010000C3C87DBE3B010000685F54BEA9
:103400002F010000C7992CBE250100002C3C0ABEEC
:103410001A0100002F1AC6BD11010000C2AC83BD05
:1034200008010000D814FCBC0001000000000000EE
:10343000F8000000EC0A023DF10000008E51773DDB
:10344000EA0000009806B83DE40000003B39ED3D7D
:10345000DD000000088B163ED800000003FA2D3E68
:10346000D2000000D7D24A3ECD000000DE7F633E8E
:10347000C8000000E3C87C3EC3000000E65A8B3E53
:10348000BF00000084F7953EBA0000006E8CA33E9A
:10349000B6000000EFADAE3EB2000000C40EBA3E72
:1034A000AE000000CDB1C53EAB0000005F99CE3E3E
:1034B00010B504461FF032FC28B10346034A2344EA
:1034C000934200D810BD0248FEF72CF800000820F7
:1034D0009854021010B50C461FF0F8FE28B10346B0
:1034E000034A2344934200D810BD0248FEF71AF85D
:1034F00000000820985402101FF018BCFFF7FCBF12
:103500009A4238BF88547047704700BF2DE9F04F8A
:1035100083B09946DDE90DAB0F9B884611469A07AB
:10352000074616D1DA453AD20C460D46ABEB0A06F1
:103530000E4422464B46414620200134B847B4424F
:10354000F7D12946BAF1000F08D1204603B0BDE8F3
:10355000F08F0C46BAF1000F10D00E4655460C9B6A
:103560002E449A440191721B4B46013D41461AF884
:10357000010D3446B847002DF5D101990F9B9B07EB
:10358000E3D5651AAB45E0D922464B46414620209B
:103590000135B8475D4504F10104F5D3D5E70C4684
:1035A000BAF1000FD9D1D0E72DE9F04F0F9FDDF828
:1035B000248017F0020F0A9C9DF82CA00E9DDDE9D7
:1035C0000C9644D1F5BBB44241D207F0010B04F193
:1035D000FF3C4FF0300EC44404E00134A6420CF826
:1035E00001EF01D9202CF8D1BBF1000F00F0888049
:1035F000A5422CD904F1FF3C4FF0300EC44404E046
:103600000134AC420CF801EF21D0202CF8D117F096
:10361000100F0ED017F4806F54D1A64263D0A5428C
:1036200061D0B9F1100F50D0B9F1020F56D0202C53
:1036300029D12024CDE90B57CDE90984BDE8F04F0D
:10364000FFF764BF17F0010B34D1B442BFD317F0BA
:10365000100F1ED017F4806FE3D1002CDDD1B9F12B
:10366000100F63D0B9F1020F77D0302488F80040F2
:103670000124BAF1000F11D17E0748D52B2608F896
:1036800004600134D6E7264601344FF0300C08F8C8
:1036900006C0202CCDD0BAF1000FEDD02D2608F8B1
:1036A00004600134CDE90B57CDE90984BDE8F04F42
:1036B000FFF72CBFBAF1000F30D0B44205F1FF354F
:1036C00085D395E7B9F1100FB3D1BE063BD5202CB9
:1036D000AFD0582608F804600134A8E7202CA8D001
:1036E0002646013407E0661EB9D0B9F1100F36D076
:1036F000B9F1020FC9D14FF0620C08F806C096E785
:1037000017F0100FC5D017F4806F86D089E73E07F9
:1037100090D5202608F8046001348BE717F00C0FD1
:1037200000D0013DB442FFF452AF61E7BC0612D4B1
:10373000782488F80040302488F801400224BAF147
:10374000000F99D0AAE7202C3FF473AF782608F831
:10375000046001346BE75824EBE76224E9E717F0D3
:10376000200FA4F1020C04D04FF0580E08F80CE022
:103770008BE74FF0780E08F80CE086E700B9704749
:1037800001F070BC10B1D1E900311847704700BF9B
:103790002DE9F04F97B09DED207BDDE9225B0746D8
:1037A000884651EC170B249C99460C920B46024616
:1037B0008DED047B0794FFF73FFB002840F0F48178
:1037C000DDE904014FF0FF326FF48013FFF758FB7F
:1037D000002840F01B81DDE904014FF0FF32AC4BC3
:1037E000FFF78AFB002840F0EE80DDE90401A4A386
:1037F000D3E90023FFF780FB002840F0D380DDE908
:103800000401A1A3D3E90023FFF73AFB002840F00D
:10381000C980DDE9040100220023FFF731FB002805
:1038200040F0E88023460D9013F4806F08BF062512
:1038300030212B460EAAA5F1200605E0013BB3423C
:1038400002F8011B00F09381092BF7D81E46ED1AF0
:10385000DDE90401FFF7CCFA8E4B044603EBC60307
:1038600093ED007B8DED087BFFF79EFA02460B4639
:10387000DDE90401FFF702FADDE90823FFF712FA98
:1038800002460B46CDE90A23FFF7C4FA8246FFF74A
:103890009DFA02460B46DDE90A01FFF7EFF9024601
:1038A0000B46CDE90A2300227B4BFFF725FB0028BE
:1038B00000F0FE800AF1010A5046FFF787FA02463F
:1038C0000B46DDE90801FFF7EFFA10B14FF0000AEF
:1038D0000134002E00F0FD80681E0EABDFF8CCC175
:1038E00018440FE0ACFB0A21C90801EB8102AAEBE6
:1038F00042023032BAF1090F00F8012F40F21C8168
:103900008A461D46202D05F1010306F1FF36E9D157
:103910002025691E0EAB6148194410E080FB04624B
:10392000C3EBA20303EB8302A4EB420404F13002D5
:1039300001351C4601F8012F002B00F0EB80202DF3
:103940004FEAE473EAD1079B03F00303012B18D17C
:10395000BBF1000F15D00D9B002B00F00A810BF17D
:10396000FF3BBBF1200F0CD96B1E0EA930220B447C
:1039700005E001355D4503F8012F80F0D180202D51
:10398000F7D1079B0EACCDE902B341464B46384612
:103990000C9A01950094FFF7B9FD8246504617B086
:1039A000BDE8F08F079B9DED047BCDE923B3414635
:1039B0004B4638460C9A8DED207B229517B0BDE81A
:1039C000F04F00F045B9610723464CBF04230323A1
:1039D0004146219338464B46079A48BF304CCDE9C3
:1039E00022B258BF2F4C0C9A209417B0BDE8F04F6C
:1039F000FFF78CBDDDE9042300200021FFF73EF92D
:103A00000123CDE904010D9323460DE723469C07CE
:103A100040F0AA80BBF1040F40F2A6800C9B1D462B
:103A20001C1F04EB0B0A2A464B4641462020013559
:103A3000B847AA45F7D155461B4C261F14F8010D6F
:103A40002A464B464146B847B44205F10105F5D137
:103A5000079B0AF1040A9807A0D50C9CAAEB040363
:103A60009B459BD952464B46414620200AF1010A0C
:103A7000B847AAEB04035B45F4D38FE7AFF30080AC
:103A80000000000065CDCD410000000065CDCDC136
:103A9000FFFFEF7F987102100000E03F67666666E7
:103AA000E8540210F0540210FC540210CDCCCCCCDF
:103AB0000022DDE90A01634BFFF7E2F900287FF4F9
:103AC00008AFBAF1000F6AD10AF1010A002E7FF4A3
:103AD00003AF2046FFF768F902460B46DDE9040113
:103AE000FFF7CCF802460B46CDE904230022554BE4
:103AF000FFF7C6F900287FF40CAFDDE904010022CE
:103B0000504BFFF7F9F900287FF403AF013424F09C
:103B10000104FEE6079B03F00303012B00F0828003
:103B2000202D3FF42EAF0D9B7BB32D220DEB050313
:103B300083F83820013524E7202B3FF4E9AE0EAAA4
:103B400015441E44302204E0202B05F8012F3FF4D9
:103B5000DFAE9E4203F10103F6D12E220DEB0603E8
:103B600083F83820751CD4E6DDF830A063E7202503
:103B70006EE6079B13F00C0F50D00BF1FF3BAB45EB
:103B80003FF6F2AE202D3FF4FCAE079B5A0701D55D
:103B90002B22CBE71B077FF5F4AE2022C6E71AF0F5
:103BA000010F3FF496AE8FE7A60734D1BBF1030FA8
:103BB00031D90C9B1D46DC1E04EB0B0A2A464B46F2
:103BC000414620200135B8475545F7D155461E4C92
:103BD000E61E14F8010D2A464B464146B847A64258
:103BE00005F10105F5D1079B0AF1030A9D077FF551
:103BF000D5AE0C9CAAEB04039B457FF6CFAE524694
:103C00004B46414620200AF1010AB847AAEB0403BB
:103C10009B45F4D8C2E6DDF830A0D7E7AB453FF6C8
:103C2000A3AEAEE6BBF1000F3FF47AAF0D9B002BC5
:103C30009FD00BF1FF3B5D45FFF496AE202D7FF446
:103C400074AF9EE60000E03FF75402100000000051
:103C50002DE9F04F9FB02A9EDDE92845074693469F
:103C60000891099322462B46204629460E96DDE907
:103C70002BA6FFF7E1F8002840F0BE802046294639
:103C80004FF0FF32784BFFF737F9002840F0B4804F
:103C9000204629464FF0FF326FF48013FFF7F0F80B
:103CA000002840F0A9802046294600220023FFF783
:103CB000E7F8002840F0D581CDE90A45DDE90A237F
:103CC0009046994606F4006216F480630F921393AF
:103CD00040F0A18058EA090340F0CA80002A40F071
:103CE000E38106230E9316F00202109240F0D48175
:103CF0005346042B38BF04230C920422043B129237
:103D00000F932046294600220023FFF7B9F8002828
:103D100040F0F3819DED0A7B0F9B5A4603930E9B67
:103D20008DED007B029326F4006304933846099BD3
:103D30000899FFF72DFD024616F0200F099B089900
:103D40000CBF6520452002F10108B8470C9A129B70
:103D500016AC5D1E82EAE273A3EBE273D10F00267C
:103D600022469946DFF804C101E0202E10D0CE464D
:103D7000ACFB0930C00800EB8003A9EB43033033F0
:103D8000BEF1090F814606F1010602F8013BECD8AD
:103D90000523002006930A2305950094099D089C9D
:103DA0004246CDE90330CDE901612B462146384634
:103DB000FFF7FAFB109A8046D2B1A0EB0B06B24592
:103DC00016D90BEB06022B46214620200136B847B8
:103DD000B245F6D80BF1FF335344CBF10102A3EB0C
:103DE00008034244924538BF002308F10108984473
:103DF00040461FB0BDE8F08F5A463846CDE9284509
:103E0000CDE92BA60E9C099B08992A941FB0BDE80A
:103E1000F04FFFF7BDBC58EA09032BD1002A3FF44D
:103E200062AF00230C930E9B0C9A934200F3B9816E
:103E30004FF000082046294600220023FFF720F813
:103E4000002840F013819DED0A7B26F4006646F4BD
:103E500080668DED287B5A463846CDE92A8A099B33
:103E600008992C96D2E700BFFFFFEF7FCDCCCCCCDA
:103E700006230E93C9F30A50A0F2FF30FEF794FF19
:103E8000C1A3D3E90023FEF70DFFC1A3D3E90023AB
:103E9000FEF7E0FEC9F31309CDE90C0149F07F51AB
:103EA00040460022B24B41F44011FEF7E7FEA4A3C6
:103EB000D3E90023FEF7F6FE02460B46DDE90C01CE
:103EC000FEF7C8FEFEF794FF0C90FEF76DFF9EA371
:103ED000D3E9002380468946FEF7E4FE0022A54B85
:103EE000FEF7B8FEFEF784FF0346494640461293AC
:103EF00097A3D3E90023FEF7D5FE804612988946A2
:103F0000FEF752FF94A3D3E90023FEF7CBFE02464F
:103F10000B4640464946FEF7B1FE02460B46804638
:103F20008946FEF7BFFE42464B46CDE910014046AA
:103F30004946FEF78FFE0022CDE91401DDE91001AC
:103F40008D4BFEF7D5FE00228C4BFEF783FE02461A
:103F50000B46DDE91001FEF7CBFE0022884BFEF791
:103F600079FE02460B46DDE91001FEF7C1FE42462E
:103F70004B468046894600204FF08041FEF77EFE8A
:103F800002460B4640464946FEF764FE02460B4693
:103F9000DDE91401FEF7ACFE00227A4BFEF75AFE73
:103FA000129B002203F2FF3C4FEA0C53FEF77AFE0D
:103FB00080468946DDE90A0142464B46FEF760FF2E
:103FC00050B10C9B4046013B49460C9300226B4B81
:103FD000FEF78EFE804689460C9A43466332C62A17
:103FE00006F00202109249460F9A2CD8002A5ED0A1
:103FF000042212920B433FF416AFDDE90A0158A3E5
:10400000D3E90023FEF764FF48B1DDE90A0156A3B6
:10401000D3E90023FEF734FF00287FF404AF0E9BA2
:10402000002B50D0139A002A7DD0013B0E93129B97
:104030009A4505D9109B002B00F0AE800223109307
:1040400000230F9344E022BBBAF1050F4FD906F0CD
:104050000203002B49D105231293AAF105030F9304
:104060003AE005F100430A940B9327E626F4006634
:1040700046F4806638462C96DDE90A67344607F137
:1040800000455A46CDE92A8ACDE92845099B089979
:10409000BCE605221292ADE700230222CDE90F32E1
:1040A00004220C9312922CE64FF00508C2E6BAF1F6
:1040B000040F1FD9109B002B78D104231293AAF16F
:1040C00004030F9304E0129B9A4531D80E9B0F9383
:1040D0000C9B002B3FF415AEDDE90A0142464B462E
:1040E000FEF706FECDE90A010BE602231093052335
:1040F0001293F1E704231293EAE7DDE90A45A046AB
:104100000F9B05F1004903930E9B5A46029326F438
:10411000006304933846CDE90089099B0899FFF7AD
:1041200037FB024608E6129B9A4544D80F92CFE728
:10413000109B8BB30E9B0F9302231093C8E700BF15
:1041400061436F63A787D23F71A379094F930A40F8
:104150001655B5BBB16B0240EF39FAFE422EE63F71
:104160002D431CEBE2361A3F0000000080842E41F4
:104170000000F83F0000E03F00002C400000244019
:10418000000018400000F03FFB799F501344D33FDC
:10419000B3C8608B288AC63F129BAAEB03030F9318
:1041A00096E7A3EB020808F1FF3843E604231293D5
:1041B000022310938CE7109B002BEDD002230F926B
:1041C000109385E72DE9F04F9BB0249C954D0A9400
:1041D000954CB1F1000A18BF834625601878934CBE
:1041E000914608BFA3460993002800F093824FF040
:1041F00000080AE042464B46514608F10108D847FC
:10420000099B1878002800F0CE80099B252803F12F
:1042100001030993EED11C460023224612F8010B3C
:10422000A0F1200110290AD8DFE801F04009093C7B
:104230000909090909090938093409093000A0F1F7
:1042400030010929099440F28A802A2800F0F08080
:1042500000252E2800F096800026A0F16801122982
:104260002DD8DFE811F049012C0043012C00380162
:104270002C002C002C002C002C002C002C002700E3
:104280002C002C002C002C002C002700144643F09E
:104290000103C2E7144643F00203BEE7144643F0AD
:1042A0000403BAE7144643F01003B6E7144643F09C
:1042B0000803B2E70999487843F48073013267280C
:1042C00009927ED8242840F2C180A0F12502422A1A
:1042D00000F2BC80DFE812F05001BA00BA00BA0068
:1042E000BA00BA00BA00BA00BA00BA00BA00BA00FE
:1042F000BA00BA00BA00BA00BA00BA00BA00BA00EE
:10430000BA00BA00BA00BA00BA00BA00BA00BA00DD
:10431000BA00BA00BA00BA00190137011901BA008F
:10432000BA00BA00BA00BA00BA00BA00BA00BA00BD
:10433000BA00BA00BA00BA00BA00BA00BA00BC01AA
:10434000BA00BA00BA00BA00BA00BA00BA00BA009D
:10435000BA00BC015801BC0119013701190100253F
:1043600000E0013205EB850500EB45051078303D96
:10437000A0F130010929F4D92E28099202F1010295
:104380007FF46AAF099943F4806348781146A0F13D
:104390003006092E40F221812A2800F02F8109924F
:1043A0000026013259E74446C14501D809F1FF38DA
:1043B0004B46424651460020D84720461BB0BDE838
:1043C000F08FA0F16902D2B20F2A3FD8012149F241
:1043D00041079140394040F0F3800A2A3DD0072A36
:1043E00034D10A9D55F8042B002A00F0138143F0C4
:1043F000210012AB1F460B9303E0202900F014812B
:104400001A4602F00F042346092C94BF3033373389
:104410000F2A07F8013B01F101014FEA1213ECD812
:1044200002E100BFC5410010ECA2002009350010D8
:104430000A99099851F8045B4078002DCDE90921CB
:10444000BCBF43F002036D42013202E742464B46D5
:10445000514608F10108D847D2E60A99002E51F8D2
:10446000047B18BF3246387808BF4FF0FF3200286F
:1044700000F07B83BC18A4463A4604E012F8014FD2
:10448000002C00F03F819445F8D16446E41B5A05A6
:1044900040F12281B44228BF344613F0020300F0F9
:1044A00088820223CDE90A5142461D46464408E06F
:1044B0004B465146D84717F8010F08F1010810B1D3
:1044C00042464645F4D12B460B990A9D002B40F0FD
:1044D00041810A9194E6099948786C287FF4ECAE02
:1044E0000A46887843F440730332E8E6099943F4B6
:1044F000007348780132E2E609994878682800F0AC
:10450000038143F080030132D9E6672800F0D980A7
:10451000472800F0DC80452800F0DB80CDE903531C
:104520000A9B0296073323F007031C464246F4E831
:1045300002674B4651465846CDE900670A94FFF79B
:1045400087FB80465CE6462808BF43F02003CDE9A0
:1045500003530A9B0296073323F007031C46424687
:10456000F4E802674B4651465846CDE900670A9485
:10457000FFF70EF9804643E642464B46514625205A
:1045800008F10108D8473BE60A9A990702F10404AA
:1045900008F1010640F1C68010784B46424651466C
:1045A000D847012D88BFA84440F2BD8132464B4612
:1045B000514620200136D8474645F7D10A941FE6D8
:1045C0006F2800F0818040F24882782800F09081C6
:1045D0000A2723F01003BC4641E0002606EB8606BE
:1045E00000EB4600A0F1300611F8010FA0F13002F7
:1045F000092AF3D90A46099101322EE6DDE909219B
:1046000051F8046B9078023209920A91013226EA3D
:10461000E67622E623F0100013F4806240F02100D9
:104620003FF4E7AE12AB0B930B9B0690009308236D
:104630001020059300234246CDE9023001914B46FC
:10464000514658460496FEF7AFFF0A958046D7E5D7
:10465000582862D0622840F08F800227BC4613F4AD
:10466000806000F0DD8023F00D0313F4007240F051
:1046700081810A990F1D13F4807140F037825C0626
:104680000A9A40F13B811278002A40F04E8123F0D3
:104690001003002800F04981114612AA0B92CDE9BF
:1046A0000553CDE903C601910B9B424600930023BD
:1046B0005146029358464B46FEF776FF0A978046CE
:1046C0009EE543F4006329E70827BC46C7E743F4A7
:1046D000006343F0200321E713F0020300F08E8112
:1046E00002230A951E460D4642464B465146D84780
:1046F00017F8010F08F101080028F5D129463346C3
:104700000A9DE3E6D41BC2E60A46887843F0C0035C
:104710000332D4E50446804646E6102743F02003E2
:10472000BC469CE7012D40F2F880464608F1FF3771
:104730002F4432464B46514620200136D847BE42D0
:10474000F7D10A9B3246187851464B46D847A844C1
:104750000A9455E54646A5427FF6BBAEA844A8EBB1
:1047600004080C4632464B46514620200136D847B5
:104770004645F7D12146ACE613F4806200F0BB80D9
:104780004FF4806223F0110C1CF400770A9B4AD18D
:104790001CF4807003F1040440F034811CF0400FDD
:1047A00040F0A3801CF0800F00F0D381B3F900101B
:1047B00081EAE177A7EBE177BFB2CB0F002900F0E8
:1047C00056813A4612A90F46DFF8D8E30B910A93B7
:1047D0000C9501E020280FD01546AEFB0213DB0834
:1047E00003EB8301A2EB41013031092D1A4600F1A0
:1047F000010007F8011BEDD80A9B0C9DCDE9055C73
:10480000CDE9010304960B9B424600930A235146CF
:10481000039358464B46FEF7C7FE0A948046EFE4E2
:1048200023F00C0321E7073323F00703194608465A
:104830005B6850F8081BDF0F0A9051EA030062D151
:10484000002A40F09F811346114612AACDE90C754B
:1048500000201546CDE90E68DFF848E30B9201E031
:1048600020282DD05A1842F10002AEFB027828F021
:10487000030707EB9807D21B1E469B1A61F100073E
:104880000C464FF0CC3101FB03F10EFB0711A3FBEB
:104890000E731944052307F00108A8FB03389B1881
:1048A0000A2E03F130034FEA570774F1000405F8AC
:1048B000013B00F1010047EAC1734FEA5101CFD239
:1048C000DDE90C75DDE90E680B9B424600930A2377
:1048D000CDE9055CCDE90107049603934B465146AB
:1048E0005846FEF761FE80468AE419780F4664E771
:1048F0001027BC46B3E623F0100C45E71C064CBF5E
:1049000012881268C0E60A46191E01DB13469CE7AE
:104910005242134661EB410197E71346514618781E
:1049200042464B46D847B04648E613F0200F14BF26
:104930004120612012ACA6460B940A93A0F10A0410
:104940000C9502E0202912D02A46B2FBFCF50CFBA4
:104950001520C3B2092803F130008ABF1B19C3B266
:10496000DBB262450EF8013B01F10101EAD20A9B7C
:104970000C9D94E60A9A073222F00702516852F819
:10498000084B8E460A9254EA010276D123F01003B6
:10499000002872D00022114612AA0B92CDE90553CD
:1049A0000B9B424600930023CDE903C6019102937D
:1049B00094E7A54298BF01347FF674AD4FF480634D
:1049C000CDE90A7505EB08021F460D46141B424649
:1049D0004B465146202008F10108D847A045F6D1A2
:1049E0003B460A9F294638780B9D6C1C00283FF4F3
:1049F00070AD002B3FF475AE002353E5A542DFD820
:104A000001346EE61968CB0F002900F0A88081EA16
:104A1000E172A2EBE17212A90846DFF888E10B917E
:104A20000A930C9501E0202F0FD01546AEFB021320
:104A3000DB0803EB8301A2EB41013031092D1A465B
:104A400007F1010700F8011BEDD80A9B0C9DCDE989
:104A5000055CCDE901730496D5E6692823F0100CB6
:104A600040F08C8013F480623FF48EAE88E6002A1A
:104A70003FF4A8AE12AA0B92C0E613F0200F14BFA9
:104A800041226122002012A90A3ACDE90E68CDE93F
:104A90000C35CDF844B006468846754693460B91D2
:104AA000CDF840C003E0202E17D004460D4629461D
:104AB0003A460023204620F027FBD2B2092A02F111
:104AC000300388BF02EB0B03BC42DBB275F100057B
:104AD00008F8013B06F10106E5D23146DDE90C3567
:104AE000DDE910CBDDF83C800E9E57E70A99096896
:104AF00051B923F0100338B112A90B91CDE9055338
:104B0000CDE903C60192CFE513F0200F14BF412079
:104B1000612012ACA6460B940A93A0F10A040C95EE
:104B200002E0202A12D02946B1FBFCF50CFB15103F
:104B3000C3B2092803F130008ABF1B19C3B2DBB22C
:104B400061450EF8013B02F10102EAD20A9B0C9D7D
:104B5000D4E7196881EAE177A7EBE1772DE6002A2F
:104B60003FF459AF12AA0B9271E713F480640DD091
:104B700013F0020412D004464646ECE50A276346C9
:104B8000BC466CE512AB00200B939DE613F00203CC
:104B90007FF4E0AD002D7FF413AF9AE4002D7FF495
:104BA0000DAF96E4CDCCCCCC0EB410B585B007AC2F
:104BB00054F8043B01464FF0FF320094044803943C
:104BC000FFF700FB05B0BDE8104003B0704700BF21
:104BD0000135001030B594468E4605461C4683B01C
:104BE00029467246634600940248FFF7EBFA03B089
:104BF00030BD00BF0135001070B594461E46054615
:104C00000C4684B04FF0FF32634602A90096034879
:104C1000CDE90254FFF7D6FA04B070BD8537001015
:104C20000FB410B50E4B84B006A91C6851F8043BB4
:104C300003915CB100914FF0FF3202A90948A047EF
:104C4000012004B0BDE8104004B07047184600F0E1
:104C50004BFA204604B0BDE8104004B0704700BFD6
:104C6000ECA200207D37001010B5094B84B01C6801
:104C70004CB1034600914FF0FF3203A90548A0470D
:104C8000012004B010BD00F02FFA204604B010BD82
:104C9000ECA200207D37001000BEFDE7074A034666
:104CA000106838B1064903448B428CBF4FF0FF3087
:104CB00013607047034908461160F3E7E09E002047
:104CC0000000082074E30020002070474FF0FF3000
:104CD000704700BF03460846114623B9034BD3E98A
:104CE000002300F059B94FF0FF30704738710210BF
:104CF000431E012B09D810B5144608460123002293
:104D0000214600F0D3F8204610BD4FF0FF30704729
:104D10004FF0FF30704700BF4FF0FF30704700BFCB
:104D20004FF0FF30704700BF02288CBF00200120E9
:104D3000704700BF08B5FFF7AFFF00BF9C461446A1
:104D400000B50B460246614683B044B1054D0648A6
:104D500001940095FFF764FF0120FFF79DFF034DCD
:104D60002C46F4E7005502101055021004530210AF
:104D700038B5064C064DFDF7E7FDAC4204D254F8B9
:104D8000043B9847AC42FAD338BD00BFC051021073
:104D9000D451021003680846114618472DE9F04126
:104DA0001546427D07468846002A46D0002D1DDD67
:104DB0000B780A2B23D0012D4FF0000C18D046465B
:104DC000012416F8012F21460A2A04F1010422D0F9
:104DD000A542F6D165450BDC08EB050313F8013C51
:104DE000A3F10D03B3FA83F35B093B75BDE8F081D2
:104DF0003B68A5EB0C0108EB0C009847ECE7037D42
:104E0000002BD8D1036802210F489847012DE3D029
:104E10004FF0010CD3E716F8013C0D2BD8D08C4590
:104E200008EB0C00A1EB0C0101DA3B68984702216A
:104E300005483B689847A446CAE7294640463B6870
:104E4000BDE8F041184700BFE87102100B682DE97A
:104E5000F041802B0D46064605D05A1C2B442A6093
:104E60001E71BDE8F0810F4B1C68A4B10E4F01F11B
:104E7000040801E0246974B12368002BFAD03B6870
:104E80000BB1A342F6D1204641462A68FFF786FFC0
:104E90002469002CF0D1002301222B442A601E71CA
:104EA000BDE8F081D09E0020DC9E00202DE9F04777
:104EB00082B00D4691461C460646FDF74FFA4FF06C
:104EC000FF3C6FF000472E4A821841F100039445E1
:104ED00077EB03013CBF62463B462A4820F034F999
:104EE0006B1C804640D00CB3274F284B1C68B4B1D4
:104EF000B9F1000F1CD1DFF89C9001E0246974B176
:104F00002368002BFAD0D9F800300BB19C42F5D1C0
:104F100020462A463146B8472469002CF0D1B8F122
:104F2000000F26D1284602B0BDE8F087184FDCE715
:104F30004FF00A0ADFF85C9002E02469002CEED002
:104F40002368002BF9D0D9F800300BB1A342F4D17B
:104F50002A4631462046B847012220460DF1070176
:104F60008DF807A0B847E8E730461FF0C7FD0546B3
:104F7000B9E7044820F0CCF8284602B0BDE8F08735
:104F800040420F00B89100209D4D0010D09E00209F
:104F9000954D0010DC9E00202DE9F04F9846074605
:104FA0000E4683B0DFF860B0DFF86090DFF860A0F5
:104FB0000192DBF8004014B911E024697CB1D9F802
:104FC00000500DB1A542F8D1A268002AF5D03146B3
:104FD000384690470028F0DD03B0BDE8F08FDAF8DE
:104FE000242090450BD8DAF82810019B994204D36D
:104FF0006FF0010003B0BDE8F08F9045F8D10120BB
:105000000021FDF7B5F9D4E7D09E0020DC9E0020FA
:1050100000000B40084A136823B90AE003F11002AC
:105020001B6933B18342F9D129B91869106019613C
:10503000704701B110607047D09E0020074B10B53B
:105040001C682CB1636823B198472469002CF9D1FE
:1050500010BD2469002CF5D110BD00BFD09E0020EA
:1050600000F0DEBAF0B583B006468DF80700FDF714
:1050700075F94FF0FF356FF00044174A821841F17F
:105080000003954274EB03013CBF23462A461348B4
:1050900020F05AF8124B07461C689CB1114D01E0F4
:1050A00024697CB12368002BFAD02B680BB19C4299
:1050B000F6D1204601220DF10701FFF76FFE2469AA
:1050C000002CEFD117B9304603B0F0BD034820F0F3
:1050D0001FF8304603B0F0BD40420F00B8910020E9
:1050E000D09E0020DC9E002038B504461FF006FD4F
:1050F000012305461A4620462946FFF7D7FE084BEE
:105100001C682CB163682BB198472469002CF9D135
:10511000284638BD2469002CF4D1284638BD00BF8C
:10512000D09E00202DE9F041A2B004460D46FDF7C7
:1051300015F94FF0FF376FF00046264ADFF8A480DC
:10514000821841F10003974276EB03013CBF3A46D7
:10515000334621481FF0F8FF00272B46224606461B
:1051600001A91E480197FFF747FD019B0546D8F8A6
:105170000040C3B1002C2BD0194F01E0246974B159
:105180002368002BFAD03B680BB1A342F6D120462E
:10519000019A02A9FFF702FE2469002CF0D1002336
:1051A000D8F8004001932CB1636843B19847246953
:1051B000002CF9D12EB9284622B0BDE8F08124692F
:1051C000F1E705481FF0A4FF284622B0BDE8F081B2
:1051D0000194EFE740420F00B89100204D4E0010BF
:1051E000DC9E0020D09E00200FB400B583B004A93F
:1051F00051F8040B0191FFF795FF03B05DF804EB44
:1052000004B07047704700BF0022014B1A7070470E
:105210006FE300204B79FF2B0BD1887948B9CB790C
:10522000012B07D1082A05D9034B8A7809201A7067
:1052300070470020704700BF6FE3002001207047D7
:10524000012901D00120704708B5104B91881B78C7
:10525000994201D0002008BD5378012B08D0022BC1
:10526000F8D1002164220846FDF78EFA012008BD1E
:105270005188CB0548BF480AC1F3402258BF4FF0C0
:10528000FF3001F07F01FDF7FDFA00BF6FE3002062
:1052900000487047B4720210012907D15378012BDE
:1052A00002D19388072B03D000207047012070475C
:1052B0001146A623014A01F027BA00BF0C72021062
:1052C0000346012201481A70704700BFEC710210BA
:1052D00008B50B68B3F5966F00D008BD00224FF0FB
:1052E000FF301146FDF7CEFA024A034B10601960F9
:1052F000704700BF709E0020749E0020184B70B550
:105300001A68002A28D0EFF3108172B6D2E8CF4F86
:105310000120002CFAD1C2E8440F002CF6D1BFF3D3
:105320005F8F00220F4C186859602270C0E88F2FE1
:1053300081F31088002400250B4E3078FCF7DCF94F
:1053400020B9002400252046294670BD3078FCF79E
:10535000E3F92046294670BD4FF47A740025EBE747
:1053600014A3002071E3002070E30020014B1878A3
:10537000FCF7D2B970E3002038B5044600200D4692
:1053800001F0E6FAA8B3002001F0F8FA88B3FCF7C0
:10539000E5FF4FF0FF3E6FF0004C174A821841F1D5
:1053A000000396457CEB03013CBF724663461348FD
:1053B0001FF0CAFEE8B1002001F0CAFA58B9002176
:1053C0004FF0FF3000F0F8FC6FF002040B481FF0C4
:1053D0009FFE204638BD002001F0D0FA0028EED014
:1053E00021462A46002001F0D5FA04460028EDD1D6
:1053F000EAE76FF00204ECE740420F0048A3002008
:1054000008B5FCF7ABFF4FF0FF3E6FF0004C0F4AC2
:10541000821841F1000396457CEB03013CBF7246C4
:1054200063460B481FF090FE70B14FF0FF30002133
:1054300000F0C2FC002001F0F3FA0028F5D1BDE82D
:10544000084003481FF064BE08BD00BF40420F0083
:1054500048A300202DE9F84380460F46FCF77EFF65
:105460004FF0FF356FF00044334A821841F10003DA
:10547000954274EB03013CBF2A4623462F481FF098
:1054800063FE08B9BDE8F883002001F061FA002846
:1054900047D0002F40DD0025DFF8A890284E13E00C
:1054A0002246002001F002FB002104464FF0FF30AD
:1054B00000F082FC002001F0B3FAFCF74FFFC9E9CD
:1054C00000012544AF4227DD002001F00FFB7C1BCB
:1054D0008442A8BF044608EB0501002CE0D1214618
:1054E0004FF0FF3000F068FC204601F099FA2046AA
:1054F00001F02EFA80B1204601F0F8FA0028E1D13F
:10550000FCF72CFFD9F80030D9F804209B1942F1A0
:10551000000283428A41D5D20848BDE8F8431FF013
:10552000F7BD00200021074BC3E90001BDE8F843A7
:1055300002481FF0EDBD00BF40420F0048A300200D
:1055400020A107005093002030B5002185B02E48DF
:105550001FF00AFEF0B92D4B1A68CAB1EFF31081A3
:1055600072B6D2E8CF5F0124002DFAD1C2E8454FD0
:10557000002DF6D1BFF35F8F254C1D68227859604E
:10558000D3B201222270C5E88F0F81F31088CBB10E
:1055900005B030BD00214FF0FF3000F00DFC0020C1
:1055A00001F0ECF9044618481FF0B2FD002CEFD0D2
:1055B000184B1B68002BEBD0174A106805B0BDE8EC
:1055C00030401847FCF7C0FC0446FCF7C7FE4FF01C
:1055D000FF3C6FF0004510F57A7241F100039445ED
:1055E00075EB030138BF2B464FF000014FF001056A
:1055F00020460A4C38BF6246CDE901150094FCF7FD
:10560000A7FC05B030BD00BF48A3002014A30020B4
:1056100071E30020709E0020749E0020FD52001057
:105620004FF0504330B585B01C68FCF78DFCFCF79B
:10563000A1FDA04202D0002005B030BD294B1B784F
:1056400001F020FD28480368002B47D00120FCF71B
:1056500001FA0346254C2649C0B22370FCF778F8BE
:1056600020780121FCF732F80E20FCF761F840BBEE
:10567000204B0125C3E90000FCF766FC0446FCF75B
:105680006DFE4FF0FF3E6FF0004C10F57A7241F165
:10569000000396457CEB03014FF000012046164CB9
:1056A0003CBF72466346CDE901150094FCF750FCFF
:1056B0000028C0DB01211148FFF7ACFC012005B038
:1056C00030BD0120FBF7BEFF01460A48FCF71EFA79
:1056D00000220E200A49FCF76BF8EBE7FCF7FAF919
:1056E000B4E700BF00A6021048A3002070E300202A
:1056F0004955001014A30020FD520010108C00200A
:105700006D530010004870475073021000487047F6
:10571000FC72021038B5184B04461A780AB344B923
:1057200040F209424FF44173144D6A8013482B80B4
:1057300038BD052C1DD8124B104D53F824102846A7
:105740000023013903E0132B20F8022F0ED011F8AB
:10575000012F0133DBB2002AF5D15B0043F4407323
:10576000E4E71121184600F025F8D8E74FF44A7312
:10577000DCE7002038BD00BF54E30020A89E0020D5
:10578000E472021000B545F247308BB0FDF76EF8B9
:1057900001220346092101A89847DDE903320449A3
:1057A00012BA1BBAC1E900230BB05DF804FB00BFBD
:1057B0003CA30020012901F1FF3300F0B3805D49D3
:1057C0000A784FEA121C9F2A8CBF0CF1370C0CF19F
:1057D000300C012B80F800C000F0A78002F00F020F
:1057E000092A8CBF37323032022B427000F09D8084
:1057F0004A784FEA121C9F2A8CBF0CF1370C0CF12F
:10580000300C032B80F802C000F08F8002F00F02F2
:10581000092A8CBF37323032042BC27000F08580E9
:105820008A784FEA121C9F2A8CBF0CF1370C0CF1BE
:10583000300C052B80F804C077D002F00F02092A43
:105840008CBF37323032062B42716ED0CA784FEAA5
:10585000121C9F2A8CBF0CF1370C0CF1300C072B5B
:1058600080F806C061D002F00F02092A8CBF3732DF
:105870003032082BC27158D00A794FEA121C9F2A85
:105880008CBF0CF1370C0CF1300C092B80F808C0E0
:105890004BD002F00F02092A8CBF373230320A2B6C
:1058A000427242D04A794FEA121C9F2A8CBF0CF1F7
:1058B000370C0CF1300C0B2B80F80AC035D002F0FD
:1058C0000F02092A8CBF373230320C2BC2722CD017
:1058D0008A794FEA121C9F2A8CBF0CF1370C0CF10D
:1058E000300C0D2B80F80CC01FD002F00F02092ADB
:1058F0008CBF373230320E2B427316D0CA79110961
:105900009F2A8CBF373130310F2B81730DD002F0BD
:105910000F02092A94BF30323732102BC27318BFDE
:10592000103002D000230370704718440023037026
:10593000704700BF3CA3002070B500F025F90C2390
:105940004025194CFF22A3670E201849FBF730FFB2
:1059500000212A4616481EF087FD012600238021DB
:105960001348144A4184826043604670058305876A
:10597000136042F8043C80F8213080F83B304362E9
:105980000D4BC360C362803B83621FF0C9FB4FF0C5
:1059900000504FF480320949094B2664E064C4F892
:1059A0009010DA6470BD00BF00001150A103002008
:1059B000E49E0020840010500001105010D001001F
:1059C0000020115001210E20FBF780BE002202486A
:1059D000114600F0F9B800BF049F0020044B197075
:1059E00021B14FF40032034BC3F89020704700BF41
:1059F0006CE30020002011500B785B0602D14B783D
:105A0000052B00D070474B88014ADBB2136070470A
:105A1000000011504FF0000C2DE9F0418878CF784C
:105A20008B8800F07F01324D4E0006EBD01205EB63
:105A30004212C4099070C7F30100D076C3F30A0381
:105A400084F0010082F803C01383507007F003074D
:105A5000CA0084BB2748043205EB811E02EB000814
:105A6000CEF8088042F800C071B3234AC9000A4446
:105A7000CEF8042021483F33016823F03F03022F72
:105A80001F4A08BF5B000B44036081EA02085340D1
:105A9000321905EB4212B3F5805FD16025D8264458
:105AA00005EB46156B6848EA876242F00042012028
:105AB0001A60BDE8F0810F4805EB811E0244CEF864
:105AC000282040F831C041B900230E4A05EB4414A8
:105AD0000120E2606360BDE8F081C90001F1A041EE
